{"contracts/SupplyChain.sol":{"SupplyChain":{"abi":[{"anonymous":false,"inputs":[{"indexed":true,"internalType":"string","name":"orderId","type":"string"},{"indexed":false,"internalType":"uint256","name":"emissions","type":"uint256"},{"indexed":false,"internalType":"uint256","name":"distance","type":"uint256"},{"indexed":false,"internalType":"string","name":"transportType","type":"string"}],"name":"CarbonEmitted","type":"event"},{"anonymous":false,"inputs":[{"indexed":true,"internalType":"string","name":"orderId","type":"string"},{"indexed":false,"internalType":"uint256","name":"probability","type":"uint256"},{"indexed":false,"internalType":"string","name":"reason","type":"string"},{"indexed":false,"internalType":"uint256","name":"estimatedDelay","type":"uint256"}],"name":"DelayPredicted","type":"event"},{"anonymous":false,"inputs":[{"indexed":true,"internalType":"string","name":"orderId","type":"string"},{"indexed":true,"internalType":"address","name":"approvedBy","type":"address"},{"indexed":false,"internalType":"uint256","name":"price","type":"uint256"},{"indexed":false,"internalType":"uint256","name":"deliveryDate","type":"uint256"}],"name":"OrderApproved","type":"event"},{"anonymous":false,"inputs":[{"indexed":false,"internalType":"string","name":"orderId","type":"string"},{"indexed":false,"internalType":"string","name":"supplierId","type":"string"},{"indexed":false,"internalType":"string","name":"productId","type":"string"}],"name":"OrderCreated","type":"event"},{"anonymous":false,"inputs":[{"indexed":true,"internalType":"string","name":"orderId","type":"string"},{"indexed":true,"internalType":"address","name":"declinedBy","type":"address"}],"name":"OrderDeclined","type":"event"},{"anonymous":false,"inputs":[{"indexed":false,"internalType":"string","name":"partnerId","type":"string"},{"indexed":false,"internalType":"string","name":"name","type":"string"},{"indexed":false,"internalType":"address","name":"walletAddress","type":"address"}],"name":"PartnerAdded","type":"event"},{"anonymous":false,"inputs":[{"indexed":false,"internalType":"string","name":"orderId","type":"string"}],"name":"ShipmentCompleted","type":"event"},{"anonymous":false,"inputs":[{"indexed":false,"internalType":"string","name":"orderId","type":"string"},{"indexed":false,"internalType":"string","name":"carrierId","type":"string"}],"name":"ShipmentStarted","type":"event"},{"anonymous":false,"inputs":[{"indexed":true,"internalType":"address","name":"user","type":"address"},{"indexed":false,"internalType":"int256","name":"lat","type":"int256"},{"indexed":false,"internalType":"int256","name":"lng","type":"int256"}],"name":"UserLocationUpdated","type":"event"},{"inputs":[{"internalType":"string","name":"orderId","type":"string"},{"internalType":"uint256","name":"price","type":"uint256"},{"internalType":"uint256","name":"deliveryDate","type":"uint256"}],"name":"acceptOrderRequest","outputs":[],"stateMutability":"nonpayable","type":"function"},{"inputs":[{"internalType":"string","name":"id","type":"string"},{"internalType":"string","name":"name","type":"string"},{"internalType":"string","name":"partnerType","type":"string"},{"internalType":"int256","name":"lat","type":"int256"},{"internalType":"int256","name":"lng","type":"int256"},{"internalType":"address","name":"walletAddress","type":"address"}],"name":"addPartner","outputs":[],"stateMutability":"nonpayable","type":"function"},{"inputs":[{"internalType":"string","name":"","type":"string"}],"name":"carbonEmissions","outputs":[{"internalType":"string","name":"orderId","type":"string"},{"internalType":"uint256","name":"timestamp","type":"uint256"},{"internalType":"uint256","name":"emissions","type":"uint256"},{"internalType":"uint256","name":"distance","type":"uint256"},{"internalType":"string","name":"transportType","type":"string"}],"stateMutability":"view","type":"function"},{"inputs":[],"name":"carbonEmissionsCount","outputs":[{"internalType":"uint256","name":"","type":"uint256"}],"stateMutability":"view","type":"function"},{"inputs":[{"internalType":"string","name":"orderId","type":"string"}],"name":"completeShipment","outputs":[],"stateMutability":"payable","type":"function"},{"inputs":[{"internalType":"string","name":"supplierId","type":"string"},{"internalType":"string","name":"productId","type":"string"},{"internalType":"string","name":"transportType","type":"string"}],"name":"createOrder","outputs":[],"stateMutability":"nonpayable","type":"function"},{"inputs":[{"internalType":"string","name":"orderId","type":"string"}],"name":"declineOrderRequest","outputs":[],"stateMutability":"nonpayable","type":"function"},{"inputs":[{"internalType":"string","name":"","type":"string"}],"name":"delayPredictions","outputs":[{"internalType":"string","name":"orderId","type":"string"},{"internalType":"uint256","name":"timestamp","type":"uint256"},{"internalType":"uint256","name":"probability","type":"uint256"},{"internalType":"string","name":"reason","type":"string"},{"internalType":"uint256","name":"estimatedDelay","type":"uint256"}],"stateMutability":"view","type":"function"},{"inputs":[],"name":"delayPredictionsCount","outputs":[{"internalType":"uint256","name":"","type":"uint256"}],"stateMutability":"view","type":"function"},{"inputs":[{"internalType":"address","name":"user","type":"address"}],"name":"getUserLocation","outputs":[{"internalType":"int256","name":"lat","type":"int256"},{"internalType":"int256","name":"lng","type":"int256"}],"stateMutability":"view","type":"function"},{"inputs":[{"internalType":"uint256","name":"","type":"uint256"}],"name":"orders","outputs":[{"internalType":"string","name":"id","type":"string"},{"internalType":"string","name":"supplierId","type":"string"},{"internalType":"string","name":"productId","type":"string"},{"internalType":"uint256","name":"orderDate","type":"uint256"},{"internalType":"uint256","name":"deliveryDate","type":"uint256"},{"internalType":"uint256","name":"price","type":"uint256"},{"internalType":"bool","name":"isPaid","type":"bool"},{"internalType":"string","name":"shipmentStatus","type":"string"},{"internalType":"string","name":"requestStatus","type":"string"},{"internalType":"string","name":"carrierId","type":"string"},{"internalType":"string","name":"transportType","type":"string"}],"stateMutability":"view","type":"function"},{"inputs":[],"name":"ordersCount","outputs":[{"internalType":"uint256","name":"","type":"uint256"}],"stateMutability":"view","type":"function"},{"inputs":[{"internalType":"uint256","name":"","type":"uint256"}],"name":"partners","outputs":[{"internalType":"string","name":"id","type":"string"},{"internalType":"string","name":"name","type":"string"},{"internalType":"string","name":"partnerType","type":"string"},{"internalType":"int256","name":"lat","type":"int256"},{"internalType":"int256","name":"lng","type":"int256"},{"internalType":"address","name":"walletAddress","type":"address"}],"stateMutability":"view","type":"function"},{"inputs":[],"name":"partnersCount","outputs":[{"internalType":"uint256","name":"","type":"uint256"}],"stateMutability":"view","type":"function"},{"inputs":[{"internalType":"string","name":"orderId","type":"string"},{"internalType":"uint256","name":"emissions","type":"uint256"},{"internalType":"uint256","name":"distance","type":"uint256"},{"internalType":"string","name":"transportType","type":"string"}],"name":"recordCarbonEmission","outputs":[],"stateMutability":"nonpayable","type":"function"},{"inputs":[{"internalType":"string","name":"orderId","type":"string"},{"internalType":"uint256","name":"probability","type":"uint256"},{"internalType":"string","name":"reason","type":"string"},{"internalType":"uint256","name":"estimatedDelay","type":"uint256"}],"name":"recordDelayPrediction","outputs":[],"stateMutability":"nonpayable","type":"function"},{"inputs":[{"internalType":"string","name":"orderId","type":"string"},{"internalType":"string","name":"carrierId","type":"string"}],"name":"startShipment","outputs":[],"stateMutability":"nonpayable","type":"function"},{"inputs":[{"internalType":"int256","name":"lat","type":"int256"},{"internalType":"int256","name":"lng","type":"int256"}],"name":"updateUserLocation","outputs":[],"stateMutability":"nonpayable","type":"function"},{"inputs":[{"internalType":"address","name":"","type":"address"}],"name":"userLocations","outputs":[{"internalType":"address","name":"userAddress","type":"address"},{"internalType":"int256","name":"lat","type":"int256"},{"internalType":"int256","name":"lng","type":"int256"}],"stateMutability":"view","type":"function"}],"evm":{"bytecode":{"linkReferences":{},"object":"608060405234801561001057600080fd5b506131cc806100206000396000f3fe6080604052600436106101145760003560e01c806362e03f91116100a0578063a85c38ef11610064578063a85c38ef1461037b578063aa088135146103c2578063bdd2121d14610403578063c3b49d0414610444578063cdd8fea51461048657610114565b806362e03f91146102ac57806372d5080b146102d55780637bb7ff6e1461030057806388027081146103295780639de290511461035257610114565b806330a93516116100e757806330a93516146101d557806335daa731146101fe5780634069d06f146102295780634a3a9d25146102455780635b51a7701461028357610114565b806310f41ddf14610119578063126969df14610158578063139e67a2146101815780631e8f46d9146101ac575b600080fd5b34801561012557600080fd5b50610140600480360381019061013b9190611f9f565b6104b1565b60405161014f93929190611ff4565b60405180910390f35b34801561016457600080fd5b5061017f600480360381019061017a91906121a7565b6104fb565b005b34801561018d57600080fd5b506101966105fc565b6040516101a39190612255565b60405180910390f35b3480156101b857600080fd5b506101d360048036038101906101ce919061229c565b610602565b005b3480156101e157600080fd5b506101fc60048036038101906101f791906122dc565b610724565b005b34801561020a57600080fd5b506102136108a8565b6040516102209190612255565b60405180910390f35b610243600480360381019061023e9190612354565b6108ae565b005b34801561025157600080fd5b5061026c60048036038101906102679190611f9f565b610a3a565b60405161027a92919061239d565b60405180910390f35b34801561028f57600080fd5b506102aa60048036038101906102a591906123c6565b610a94565b005b3480156102b857600080fd5b506102d360048036038101906102ce91906124a7565b610bfb565b005b3480156102e157600080fd5b506102ea610e63565b6040516102f79190612255565b60405180910390f35b34801561030c57600080fd5b506103276004803603810190610322919061254e565b610e69565b005b34801561033557600080fd5b50610350600480360381019061034b9190612354565b6110f3565b005b34801561035e57600080fd5b50610379600480360381019061037491906125bd565b61131a565b005b34801561038757600080fd5b506103a2600480360381019061039d919061265c565b61141b565b6040516103b99b9a99989796959493929190612723565b60405180910390f35b3480156103ce57600080fd5b506103e960048036038101906103e49190612354565b61184a565b6040516103fa9594939291906127ff565b60405180910390f35b34801561040f57600080fd5b5061042a60048036038101906104259190612354565b6119a6565b60405161043b959493929190612860565b60405180910390f35b34801561045057600080fd5b5061046b6004803603810190610466919061265c565b611b02565b60405161047d969594939291906128c1565b60405180910390f35b34801561049257600080fd5b5061049b611d06565b6040516104a89190612255565b60405180910390f35b60066020528060005260406000206000915090508060000160009054906101000a900473ffffffffffffffffffffffffffffffffffffffff16908060010154908060020154905083565b6040518060a00160405280858152602001428152602001848152602001838152602001828152506004856040516105329190612973565b908152602001604051809103902060008201518160000190816105559190612b96565b5060208201518160010155604082015181600201556060820151816003015560808201518160040190816105899190612b96565b50905050600560008154809291906105a090612c97565b9190505550836040516105b39190612973565b60405180910390207fda91ca404f3f8799fd57efacb71a91f1f917a738b9bdb151da1516ded0ff561c8484846040516105ee93929190612cdf565b60405180910390a250505050565b60055481565b60405180606001604052803373ffffffffffffffffffffffffffffffffffffffff16815260200183815260200182815250600660003373ffffffffffffffffffffffffffffffffffffffff1673ffffffffffffffffffffffffffffffffffffffff16815260200190815260200160002060008201518160000160006101000a81548173ffffffffffffffffffffffffffffffffffffffff021916908373ffffffffffffffffffffffffffffffffffffffff16021790555060208201518160010155604082015181600201559050503373ffffffffffffffffffffffffffffffffffffffff167f10ecdd796c2ed5f78151f7f44257a43d5735f73c03e24c4f41747f89fcd14068838360405161071892919061239d565b60405180910390a25050565b60005b600380549050811015610868578280519060200120600382815481106107505761074f612d1d565b5b90600052602060002090600b020160000160405161076e9190612def565b604051809103902003610855576040518060400160405280600a81526020017f496e205472616e73697400000000000000000000000000000000000000000000815250600382815481106107c5576107c4612d1d565b5b90600052602060002090600b020160070190816107e29190612b96565b5081600382815481106107f8576107f7612d1d565b5b90600052602060002090600b020160090190816108159190612b96565b507fa647fdae905df85901f9c97aaad099b6f5cdb392d26594d30e916acb4b86f77c8383604051610847929190612e06565b60405180910390a1506108a4565b808061086090612c97565b915050610727565b506040517f08c379a000000000000000000000000000000000000000000000000000000000815260040161089b90612e89565b60405180910390fd5b5050565b60015481565b60005b6003805490508110156109fb578180519060200120600382815481106108da576108d9612d1d565b5b90600052602060002090600b02016000016040516108f89190612def565b6040518091039020036109e8576040518060400160405280600981526020017f44656c69766572656400000000000000000000000000000000000000000000008152506003828154811061094f5761094e612d1d565b5b90600052602060002090600b0201600701908161096c9190612b96565b5060016003828154811061098357610982612d1d565b5b90600052602060002090600b020160060160006101000a81548160ff0219169083151502179055507ffe45e082e373e0cd30323fef887858a53d293db708ced005856b63f9024345ee826040516109da9190612ea9565b60405180910390a150610a37565b80806109f390612c97565b9150506108b1565b506040517f08c379a0000000000000000000000000000000000000000000000000000000008152600401610a2e90612e89565b60405180910390fd5b50565b6000806000600660008573ffffffffffffffffffffffffffffffffffffffff1673ffffffffffffffffffffffffffffffffffffffff1681526020019081526020016000209050806001015481600201549250925050915091565b60026040518060c001604052808881526020018781526020018681526020018581526020018481526020018373ffffffffffffffffffffffffffffffffffffffff1681525090806001815401808255809150506001900390600052602060002090600602016000909190919091506000820151816000019081610b179190612b96565b506020820151816001019081610b2d9190612b96565b506040820151816002019081610b439190612b96565b50606082015181600301556080820151816004015560a08201518160050160006101000a81548173ffffffffffffffffffffffffffffffffffffffff021916908373ffffffffffffffffffffffffffffffffffffffff1602179055505050600080815480929190610bb390612c97565b91905055507f28d5b2fd31c60b27a4052ca943e1e78299875807289bf4dddd5c373aa2b0426b868683604051610beb93929190612ecb565b60405180910390a1505050505050565b6000610c176001600380549050610c129190612f10565b611d0c565b604051602001610c279190612f90565b6040516020818303038152906040529050600360405180610160016040528083815260200186815260200185815260200142815260200160008152602001600081526020016000151581526020016040518060400160405280600781526020017f50656e64696e670000000000000000000000000000000000000000000000000081525081526020016040518060400160405280600781526020017f50656e64696e670000000000000000000000000000000000000000000000000081525081526020016040518060200160405280600081525081526020018481525090806001815401808255809150506001900390600052602060002090600b02016000909190919091506000820151816000019081610d429190612b96565b506020820151816001019081610d589190612b96565b506040820151816002019081610d6e9190612b96565b50606082015181600301556080820151816004015560a0820151816005015560c08201518160060160006101000a81548160ff02191690831515021790555060e0820151816007019081610dc29190612b96565b50610100820151816008019081610dd99190612b96565b50610120820151816009019081610df09190612b96565b5061014082015181600a019081610e079190612b96565b50505060016000815480929190610e1d90612c97565b91905055507f8849a69cae32e2cee951cbe777bb31142fb780f1177465095b1418334a28c826818585604051610e5593929190612fb2565b60405180910390a150505050565b60085481565b60005b6003805490508110156110b257838051906020012060038281548110610e9557610e94612d1d565b5b90600052602060002090600b0201600001604051610eb39190612def565b60405180910390200361109f576040518060400160405280600781526020017f50656e64696e67000000000000000000000000000000000000000000000000008152508051906020012060038281548110610f1157610f10612d1d565b5b90600052602060002090600b0201600801604051610f2f9190612def565b604051809103902014610f77576040517f08c379a0000000000000000000000000000000000000000000000000000000008152600401610f6e9061304a565b60405180910390fd5b8260038281548110610f8c57610f8b612d1d565b5b90600052602060002090600b0201600501819055508160038281548110610fb657610fb5612d1d565b5b90600052602060002090600b0201600401819055506040518060400160405280600881526020017f417070726f7665640000000000000000000000000000000000000000000000008152506003828154811061101557611014612d1d565b5b90600052602060002090600b020160080190816110329190612b96565b503373ffffffffffffffffffffffffffffffffffffffff16846040516110589190612973565b60405180910390207fa960ffa51e319532722a62e005c77208bbf7ad09a24eaedfbf5c8fe37271335e858560405161109192919061306a565b60405180910390a3506110ee565b80806110aa90612c97565b915050610e6c565b506040517f08c379a00000000000000000000000000000000000000000000000000000000081526004016110e590612e89565b60405180910390fd5b505050565b60005b6003805490508110156112db5781805190602001206003828154811061111f5761111e612d1d565b5b90600052602060002090600b020160000160405161113d9190612def565b6040518091039020036112c8576040518060400160405280600781526020017f50656e64696e6700000000000000000000000000000000000000000000000000815250805190602001206003828154811061119b5761119a612d1d565b5b90600052602060002090600b02016008016040516111b99190612def565b604051809103902014611201576040517f08c379a00000000000000000000000000000000000000000000000000000000081526004016111f89061304a565b60405180910390fd5b6040518060400160405280600881526020017f4465636c696e65640000000000000000000000000000000000000000000000008152506003828154811061124b5761124a612d1d565b5b90600052602060002090600b020160080190816112689190612b96565b503373ffffffffffffffffffffffffffffffffffffffff168260405161128e9190612973565b60405180910390207f8c721bb27a7aaece78aee375ce1d1dd252ec3ea2b8e37d4a2edb5873726872a760405160405180910390a350611317565b80806112d390612c97565b9150506110f6565b506040517f08c379a000000000000000000000000000000000000000000000000000000000815260040161130e90612e89565b60405180910390fd5b50565b6040518060a00160405280858152602001428152602001848152602001838152602001828152506007856040516113519190612973565b908152602001604051809103902060008201518160000190816113749190612b96565b506020820151816001015560408201518160020155606082015181600301908161139e9190612b96565b5060808201518160040155905050600860008154809291906113bf90612c97565b9190505550836040516113d29190612973565b60405180910390207ffeff67426e3772fd3fbe509c3ad110eaf857081e22844755c939f6d1d8dac4b084848460405161140d93929190613093565b60405180910390a250505050565b6003818154811061142b57600080fd5b90600052602060002090600b020160009150905080600001805461144e906129b9565b80601f016020809104026020016040519081016040528092919081815260200182805461147a906129b9565b80156114c75780601f1061149c576101008083540402835291602001916114c7565b820191906000526020600020905b8154815290600101906020018083116114aa57829003601f168201915b5050505050908060010180546114dc906129b9565b80601f0160208091040260200160405190810160405280929190818152602001828054611508906129b9565b80156115555780601f1061152a57610100808354040283529160200191611555565b820191906000526020600020905b81548152906001019060200180831161153857829003601f168201915b50505050509080600201805461156a906129b9565b80601f0160208091040260200160405190810160405280929190818152602001828054611596906129b9565b80156115e35780601f106115b8576101008083540402835291602001916115e3565b820191906000526020600020905b8154815290600101906020018083116115c657829003601f168201915b5050505050908060030154908060040154908060050154908060060160009054906101000a900460ff169080600701805461161d906129b9565b80601f0160208091040260200160405190810160405280929190818152602001828054611649906129b9565b80156116965780601f1061166b57610100808354040283529160200191611696565b820191906000526020600020905b81548152906001019060200180831161167957829003601f168201915b5050505050908060080180546116ab906129b9565b80601f01602080910402602001604051908101604052809291908181526020018280546116d7906129b9565b80156117245780601f106116f957610100808354040283529160200191611724565b820191906000526020600020905b81548152906001019060200180831161170757829003601f168201915b505050505090806009018054611739906129b9565b80601f0160208091040260200160405190810160405280929190818152602001828054611765906129b9565b80156117b25780601f10611787576101008083540402835291602001916117b2565b820191906000526020600020905b81548152906001019060200180831161179557829003601f168201915b50505050509080600a0180546117c7906129b9565b80601f01602080910402602001604051908101604052809291908181526020018280546117f3906129b9565b80156118405780601f1061181557610100808354040283529160200191611840565b820191906000526020600020905b81548152906001019060200180831161182357829003601f168201915b505050505090508b565b600481805160208101820180518482526020830160208501208183528095505050505050600091509050806000018054611883906129b9565b80601f01602080910402602001604051908101604052809291908181526020018280546118af906129b9565b80156118fc5780601f106118d1576101008083540402835291602001916118fc565b820191906000526020600020905b8154815290600101906020018083116118df57829003601f168201915b505050505090806001015490806002015490806003015490806004018054611923906129b9565b80601f016020809104026020016040519081016040528092919081815260200182805461194f906129b9565b801561199c5780601f106119715761010080835404028352916020019161199c565b820191906000526020600020905b81548152906001019060200180831161197f57829003601f168201915b5050505050905085565b6007818051602081018201805184825260208301602085012081835280955050505050506000915090508060000180546119df906129b9565b80601f0160208091040260200160405190810160405280929190818152602001828054611a0b906129b9565b8015611a585780601f10611a2d57610100808354040283529160200191611a58565b820191906000526020600020905b815481529060010190602001808311611a3b57829003601f168201915b505050505090806001015490806002015490806003018054611a79906129b9565b80601f0160208091040260200160405190810160405280929190818152602001828054611aa5906129b9565b8015611af25780601f10611ac757610100808354040283529160200191611af2565b820191906000526020600020905b815481529060010190602001808311611ad557829003601f168201915b5050505050908060040154905085565b60028181548110611b1257600080fd5b9060005260206000209060060201600091509050806000018054611b35906129b9565b80601f0160208091040260200160405190810160405280929190818152602001828054611b61906129b9565b8015611bae5780601f10611b8357610100808354040283529160200191611bae565b820191906000526020600020905b815481529060010190602001808311611b9157829003601f168201915b505050505090806001018054611bc3906129b9565b80601f0160208091040260200160405190810160405280929190818152602001828054611bef906129b9565b8015611c3c5780601f10611c1157610100808354040283529160200191611c3c565b820191906000526020600020905b815481529060010190602001808311611c1f57829003601f168201915b505050505090806002018054611c51906129b9565b80601f0160208091040260200160405190810160405280929190818152602001828054611c7d906129b9565b8015611cca5780601f10611c9f57610100808354040283529160200191611cca565b820191906000526020600020905b815481529060010190602001808311611cad57829003601f168201915b5050505050908060030154908060040154908060050160009054906101000a900473ffffffffffffffffffffffffffffffffffffffff16905086565b60005481565b606060008203611d53576040518060400160405280600181526020017f30000000000000000000000000000000000000000000000000000000000000008152509050611f28565b60006064905060008167ffffffffffffffff811115611d7557611d74612046565b5b6040519080825280601f01601f191660200182016040528015611da75781602001600182028036833780820191505090505b50905060005b60008514611e39576000600a86611dc49190613100565b9050600a86611dd39190613131565b9550806030611de29190612f10565b60f81b838380611df190612c97565b945081518110611e0457611e03612d1d565b5b60200101907effffffffffffffffffffffffffffffffffffffffffffffffffffffffffffff1916908160001a90535050611dad565b60008167ffffffffffffffff811115611e5557611e54612046565b5b6040519080825280601f01601f191660200182016040528015611e875781602001600182028036833780820191505090505b50905060005b82811015611f1f578381600185611ea49190613162565b611eae9190613162565b81518110611ebf57611ebe612d1d565b5b602001015160f81c60f81b828281518110611edd57611edc612d1d565b5b60200101907effffffffffffffffffffffffffffffffffffffffffffffffffffffffffffff1916908160001a9053508080611f1790612c97565b915050611e8d565b50809450505050505b919050565b6000604051905090565b600080fd5b600080fd5b600073ffffffffffffffffffffffffffffffffffffffff82169050919050565b6000611f6c82611f41565b9050919050565b611f7c81611f61565b8114611f8757600080fd5b50565b600081359050611f9981611f73565b92915050565b600060208284031215611fb557611fb4611f37565b5b6000611fc384828501611f8a565b91505092915050565b611fd581611f61565b82525050565b6000819050919050565b611fee81611fdb565b82525050565b60006060820190506120096000830186611fcc565b6120166020830185611fe5565b6120236040830184611fe5565b949350505050565b600080fd5b600080fd5b6000601f19601f8301169050919050565b7f4e487b7100000000000000000000000000000000000000000000000000000000600052604160045260246000fd5b61207e82612035565b810181811067ffffffffffffffff8211171561209d5761209c612046565b5b80604052505050565b60006120b0611f2d565b90506120bc8282612075565b919050565b600067ffffffffffffffff8211156120dc576120db612046565b5b6120e582612035565b9050602081019050919050565b82818337600083830152505050565b600061211461210f846120c1565b6120a6565b9050828152602081018484840111156121305761212f612030565b5b61213b8482856120f2565b509392505050565b600082601f8301126121585761215761202b565b5b8135612168848260208601612101565b91505092915050565b6000819050919050565b61218481612171565b811461218f57600080fd5b50565b6000813590506121a18161217b565b92915050565b600080600080608085870312156121c1576121c0611f37565b5b600085013567ffffffffffffffff8111156121df576121de611f3c565b5b6121eb87828801612143565b94505060206121fc87828801612192565b935050604061220d87828801612192565b925050606085013567ffffffffffffffff81111561222e5761222d611f3c565b5b61223a87828801612143565b91505092959194509250565b61224f81612171565b82525050565b600060208201905061226a6000830184612246565b92915050565b61227981611fdb565b811461228457600080fd5b50565b60008135905061229681612270565b92915050565b600080604083850312156122b3576122b2611f37565b5b60006122c185828601612287565b92505060206122d285828601612287565b9150509250929050565b600080604083850312156122f3576122f2611f37565b5b600083013567ffffffffffffffff81111561231157612310611f3c565b5b61231d85828601612143565b925050602083013567ffffffffffffffff81111561233e5761233d611f3c565b5b61234a85828601612143565b9150509250929050565b60006020828403121561236a57612369611f37565b5b600082013567ffffffffffffffff81111561238857612387611f3c565b5b61239484828501612143565b91505092915050565b60006040820190506123b26000830185611fe5565b6123bf6020830184611fe5565b9392505050565b60008060008060008060c087890312156123e3576123e2611f37565b5b600087013567ffffffffffffffff81111561240157612400611f3c565b5b61240d89828a01612143565b965050602087013567ffffffffffffffff81111561242e5761242d611f3c565b5b61243a89828a01612143565b955050604087013567ffffffffffffffff81111561245b5761245a611f3c565b5b61246789828a01612143565b945050606061247889828a01612287565b935050608061248989828a01612287565b92505060a061249a89828a01611f8a565b9150509295509295509295565b6000806000606084860312156124c0576124bf611f37565b5b600084013567ffffffffffffffff8111156124de576124dd611f3c565b5b6124ea86828701612143565b935050602084013567ffffffffffffffff81111561250b5761250a611f3c565b5b61251786828701612143565b925050604084013567ffffffffffffffff81111561253857612537611f3c565b5b61254486828701612143565b9150509250925092565b60008060006060848603121561256757612566611f37565b5b600084013567ffffffffffffffff81111561258557612584611f3c565b5b61259186828701612143565b93505060206125a286828701612192565b92505060406125b386828701612192565b9150509250925092565b600080600080608085870312156125d7576125d6611f37565b5b600085013567ffffffffffffffff8111156125f5576125f4611f3c565b5b61260187828801612143565b945050602061261287828801612192565b935050604085013567ffffffffffffffff81111561263357612632611f3c565b5b61263f87828801612143565b925050606061265087828801612192565b91505092959194509250565b60006020828403121561267257612671611f37565b5b600061268084828501612192565b91505092915050565b600081519050919050565b600082825260208201905092915050565b60005b838110156126c35780820151818401526020810190506126a8565b60008484015250505050565b60006126da82612689565b6126e48185612694565b93506126f48185602086016126a5565b6126fd81612035565b840191505092915050565b60008115159050919050565b61271d81612708565b82525050565b600061016082019050818103600083015261273e818e6126cf565b90508181036020830152612752818d6126cf565b90508181036040830152612766818c6126cf565b9050612775606083018b612246565b612782608083018a612246565b61278f60a0830189612246565b61279c60c0830188612714565b81810360e08301526127ae81876126cf565b90508181036101008301526127c381866126cf565b90508181036101208301526127d881856126cf565b90508181036101408301526127ed81846126cf565b90509c9b505050505050505050505050565b600060a082019050818103600083015261281981886126cf565b90506128286020830187612246565b6128356040830186612246565b6128426060830185612246565b818103608083015261285481846126cf565b90509695505050505050565b600060a082019050818103600083015261287a81886126cf565b90506128896020830187612246565b6128966040830186612246565b81810360608301526128a881856126cf565b90506128b76080830184612246565b9695505050505050565b600060c08201905081810360008301526128db81896126cf565b905081810360208301526128ef81886126cf565b9050818103604083015261290381876126cf565b90506129126060830186611fe5565b61291f6080830185611fe5565b61292c60a0830184611fcc565b979650505050505050565b600081905092915050565b600061294d82612689565b6129578185612937565b93506129678185602086016126a5565b80840191505092915050565b600061297f8284612942565b915081905092915050565b7f4e487b7100000000000000000000000000000000000000000000000000000000600052602260045260246000fd5b600060028204905060018216806129d157607f821691505b6020821081036129e4576129e361298a565b5b50919050565b60008190508160005260206000209050919050565b60006020601f8301049050919050565b600082821b905092915050565b600060088302612a4c7fffffffffffffffffffffffffffffffffffffffffffffffffffffffffffffffff82612a0f565b612a568683612a0f565b95508019841693508086168417925050509392505050565b6000819050919050565b6000612a93612a8e612a8984612171565b612a6e565b612171565b9050919050565b6000819050919050565b612aad83612a78565b612ac1612ab982612a9a565b848454612a1c565b825550505050565b600090565b612ad6612ac9565b612ae1818484612aa4565b505050565b5b81811015612b0557612afa600082612ace565b600181019050612ae7565b5050565b601f821115612b4a57612b1b816129ea565b612b24846129ff565b81016020851015612b33578190505b612b47612b3f856129ff565b830182612ae6565b50505b505050565b600082821c905092915050565b6000612b6d60001984600802612b4f565b1980831691505092915050565b6000612b868383612b5c565b9150826002028217905092915050565b612b9f82612689565b67ffffffffffffffff811115612bb857612bb7612046565b5b612bc282546129b9565b612bcd828285612b09565b600060209050601f831160018114612c005760008415612bee578287015190505b612bf88582612b7a565b865550612c60565b601f198416612c0e866129ea565b60005b82811015612c3657848901518255600182019150602085019450602081019050612c11565b86831015612c535784890151612c4f601f891682612b5c565b8355505b6001600288020188555050505b505050505050565b7f4e487b7100000000000000000000000000000000000000000000000000000000600052601160045260246000fd5b6000612ca282612171565b91507fffffffffffffffffffffffffffffffffffffffffffffffffffffffffffffffff8203612cd457612cd3612c68565b5b600182019050919050565b6000606082019050612cf46000830186612246565b612d016020830185612246565b8181036040830152612d1381846126cf565b9050949350505050565b7f4e487b7100000000000000000000000000000000000000000000000000000000600052603260045260246000fd5b600081905092915050565b60008190508160005260206000209050919050565b60008154612d79816129b9565b612d838186612d4c565b94506001821660008114612d9e5760018114612db357612de6565b60ff1983168652811515820286019350612de6565b612dbc85612d57565b60005b83811015612dde57815481890152600182019150602081019050612dbf565b838801955050505b50505092915050565b6000612dfb8284612d6c565b915081905092915050565b60006040820190508181036000830152612e2081856126cf565b90508181036020830152612e3481846126cf565b90509392505050565b7f4f72646572206e6f7420666f756e640000000000000000000000000000000000600082015250565b6000612e73600f83612694565b9150612e7e82612e3d565b602082019050919050565b60006020820190508181036000830152612ea281612e66565b9050919050565b60006020820190508181036000830152612ec381846126cf565b905092915050565b60006060820190508181036000830152612ee581866126cf565b90508181036020830152612ef981856126cf565b9050612f086040830184611fcc565b949350505050565b6000612f1b82612171565b9150612f2683612171565b9250828201905080821115612f3e57612f3d612c68565b5b92915050565b7f4f52442d00000000000000000000000000000000000000000000000000000000600082015250565b6000612f7a600483612937565b9150612f8582612f44565b600482019050919050565b6000612f9b82612f6d565b9150612fa78284612942565b915081905092915050565b60006060820190508181036000830152612fcc81866126cf565b90508181036020830152612fe081856126cf565b90508181036040830152612ff481846126cf565b9050949350505050565b7f4f72646572206973206e6f742070656e64696e67000000000000000000000000600082015250565b6000613034601483612694565b915061303f82612ffe565b602082019050919050565b6000602082019050818103600083015261306381613027565b9050919050565b600060408201905061307f6000830185612246565b61308c6020830184612246565b9392505050565b60006060820190506130a86000830186612246565b81810360208301526130ba81856126cf565b90506130c96040830184612246565b949350505050565b7f4e487b7100000000000000000000000000000000000000000000000000000000600052601260045260246000fd5b600061310b82612171565b915061311683612171565b925082613126576131256130d1565b5b828206905092915050565b600061313c82612171565b915061314783612171565b925082613157576131566130d1565b5b828204905092915050565b600061316d82612171565b915061317883612171565b92508282039050818111156131905761318f612c68565b5b9291505056fea26469706673582212201799d80d145b21d9c4191fcc54f4bf22ffebb4cf9523595a44c729cd79609d3d64736f6c63430008140033","opcodes":"PUSH1 0x80 PUSH1 0x40 MSTORE CALLVALUE DUP1 ISZERO PUSH2 0x10 JUMPI PUSH1 0x0 DUP1 REVERT JUMPDEST POP PUSH2 0x31CC DUP1 PUSH2 0x20 PUSH1 0x0 CODECOPY PUSH1 0x0 RETURN INVALID PUSH1 0x80 PUSH1 0x40 MSTORE PUSH1 0x4 CALLDATASIZE LT PUSH2 0x114 JUMPI PUSH1 0x0 CALLDATALOAD PUSH1 0xE0 SHR DUP1 PUSH4 0x62E03F91 GT PUSH2 0xA0 JUMPI DUP1 PUSH4 0xA85C38EF GT PUSH2 0x64 JUMPI DUP1 PUSH4 0xA85C38EF EQ PUSH2 0x37B JUMPI DUP1 PUSH4 0xAA088135 EQ PUSH2 0x3C2 JUMPI DUP1 PUSH4 0xBDD2121D EQ PUSH2 0x403 JUMPI DUP1 PUSH4 0xC3B49D04 EQ PUSH2 0x444 JUMPI DUP1 PUSH4 0xCDD8FEA5 EQ PUSH2 0x486 JUMPI PUSH2 0x114 JUMP JUMPDEST DUP1 PUSH4 0x62E03F91 EQ PUSH2 0x2AC JUMPI DUP1 PUSH4 0x72D5080B EQ PUSH2 0x2D5 JUMPI DUP1 PUSH4 0x7BB7FF6E EQ PUSH2 0x300 JUMPI DUP1 PUSH4 0x88027081 EQ PUSH2 0x329 JUMPI DUP1 PUSH4 0x9DE29051 EQ PUSH2 0x352 JUMPI PUSH2 0x114 JUMP JUMPDEST DUP1 PUSH4 0x30A93516 GT PUSH2 0xE7 JUMPI DUP1 PUSH4 0x30A93516 EQ PUSH2 0x1D5 JUMPI DUP1 PUSH4 0x35DAA731 EQ PUSH2 0x1FE JUMPI DUP1 PUSH4 0x4069D06F EQ PUSH2 0x229 JUMPI DUP1 PUSH4 0x4A3A9D25 EQ PUSH2 0x245 JUMPI DUP1 PUSH4 0x5B51A770 EQ PUSH2 0x283 JUMPI PUSH2 0x114 JUMP JUMPDEST DUP1 PUSH4 0x10F41DDF EQ PUSH2 0x119 JUMPI DUP1 PUSH4 0x126969DF EQ PUSH2 0x158 JUMPI DUP1 PUSH4 0x139E67A2 EQ PUSH2 0x181 JUMPI DUP1 PUSH4 0x1E8F46D9 EQ PUSH2 0x1AC JUMPI JUMPDEST PUSH1 0x0 DUP1 REVERT JUMPDEST CALLVALUE DUP1 ISZERO PUSH2 0x125 JUMPI PUSH1 0x0 DUP1 REVERT JUMPDEST POP PUSH2 0x140 PUSH1 0x4 DUP1 CALLDATASIZE SUB DUP2 ADD SWAP1 PUSH2 0x13B SWAP2 SWAP1 PUSH2 0x1F9F JUMP JUMPDEST PUSH2 0x4B1 JUMP JUMPDEST PUSH1 0x40 MLOAD PUSH2 0x14F SWAP4 SWAP3 SWAP2 SWAP1 PUSH2 0x1FF4 JUMP JUMPDEST PUSH1 0x40 MLOAD DUP1 SWAP2 SUB SWAP1 RETURN JUMPDEST CALLVALUE DUP1 ISZERO PUSH2 0x164 JUMPI PUSH1 0x0 DUP1 REVERT JUMPDEST POP PUSH2 0x17F PUSH1 0x4 DUP1 CALLDATASIZE SUB DUP2 ADD SWAP1 PUSH2 0x17A SWAP2 SWAP1 PUSH2 0x21A7 JUMP JUMPDEST PUSH2 0x4FB JUMP JUMPDEST STOP JUMPDEST CALLVALUE DUP1 ISZERO PUSH2 0x18D JUMPI PUSH1 0x0 DUP1 REVERT JUMPDEST POP PUSH2 0x196 PUSH2 0x5FC JUMP JUMPDEST PUSH1 0x40 MLOAD PUSH2 0x1A3 SWAP2 SWAP1 PUSH2 0x2255 JUMP JUMPDEST PUSH1 0x40 MLOAD DUP1 SWAP2 SUB SWAP1 RETURN JUMPDEST CALLVALUE DUP1 ISZERO PUSH2 0x1B8 JUMPI PUSH1 0x0 DUP1 REVERT JUMPDEST POP PUSH2 0x1D3 PUSH1 0x4 DUP1 CALLDATASIZE SUB DUP2 ADD SWAP1 PUSH2 0x1CE SWAP2 SWAP1 PUSH2 0x229C JUMP JUMPDEST PUSH2 0x602 JUMP JUMPDEST STOP JUMPDEST CALLVALUE DUP1 ISZERO PUSH2 0x1E1 JUMPI PUSH1 0x0 DUP1 REVERT JUMPDEST POP PUSH2 0x1FC PUSH1 0x4 DUP1 CALLDATASIZE SUB DUP2 ADD SWAP1 PUSH2 0x1F7 SWAP2 SWAP1 PUSH2 0x22DC JUMP JUMPDEST PUSH2 0x724 JUMP JUMPDEST STOP JUMPDEST CALLVALUE DUP1 ISZERO PUSH2 0x20A JUMPI PUSH1 0x0 DUP1 REVERT JUMPDEST POP PUSH2 0x213 PUSH2 0x8A8 JUMP JUMPDEST PUSH1 0x40 MLOAD PUSH2 0x220 SWAP2 SWAP1 PUSH2 0x2255 JUMP JUMPDEST PUSH1 0x40 MLOAD DUP1 SWAP2 SUB SWAP1 RETURN JUMPDEST PUSH2 0x243 PUSH1 0x4 DUP1 CALLDATASIZE SUB DUP2 ADD SWAP1 PUSH2 0x23E SWAP2 SWAP1 PUSH2 0x2354 JUMP JUMPDEST PUSH2 0x8AE JUMP JUMPDEST STOP JUMPDEST CALLVALUE DUP1 ISZERO PUSH2 0x251 JUMPI PUSH1 0x0 DUP1 REVERT JUMPDEST POP PUSH2 0x26C PUSH1 0x4 DUP1 CALLDATASIZE SUB DUP2 ADD SWAP1 PUSH2 0x267 SWAP2 SWAP1 PUSH2 0x1F9F JUMP JUMPDEST PUSH2 0xA3A JUMP JUMPDEST PUSH1 0x40 MLOAD PUSH2 0x27A SWAP3 SWAP2 SWAP1 PUSH2 0x239D JUMP JUMPDEST PUSH1 0x40 MLOAD DUP1 SWAP2 SUB SWAP1 RETURN JUMPDEST CALLVALUE DUP1 ISZERO PUSH2 0x28F JUMPI PUSH1 0x0 DUP1 REVERT JUMPDEST POP PUSH2 0x2AA PUSH1 0x4 DUP1 CALLDATASIZE SUB DUP2 ADD SWAP1 PUSH2 0x2A5 SWAP2 SWAP1 PUSH2 0x23C6 JUMP JUMPDEST PUSH2 0xA94 JUMP JUMPDEST STOP JUMPDEST CALLVALUE DUP1 ISZERO PUSH2 0x2B8 JUMPI PUSH1 0x0 DUP1 REVERT JUMPDEST POP PUSH2 0x2D3 PUSH1 0x4 DUP1 CALLDATASIZE SUB DUP2 ADD SWAP1 PUSH2 0x2CE SWAP2 SWAP1 PUSH2 0x24A7 JUMP JUMPDEST PUSH2 0xBFB JUMP JUMPDEST STOP JUMPDEST CALLVALUE DUP1 ISZERO PUSH2 0x2E1 JUMPI PUSH1 0x0 DUP1 REVERT JUMPDEST POP PUSH2 0x2EA PUSH2 0xE63 JUMP JUMPDEST PUSH1 0x40 MLOAD PUSH2 0x2F7 SWAP2 SWAP1 PUSH2 0x2255 JUMP JUMPDEST PUSH1 0x40 MLOAD DUP1 SWAP2 SUB SWAP1 RETURN JUMPDEST CALLVALUE DUP1 ISZERO PUSH2 0x30C JUMPI PUSH1 0x0 DUP1 REVERT JUMPDEST POP PUSH2 0x327 PUSH1 0x4 DUP1 CALLDATASIZE SUB DUP2 ADD SWAP1 PUSH2 0x322 SWAP2 SWAP1 PUSH2 0x254E JUMP JUMPDEST PUSH2 0xE69 JUMP JUMPDEST STOP JUMPDEST CALLVALUE DUP1 ISZERO PUSH2 0x335 JUMPI PUSH1 0x0 DUP1 REVERT JUMPDEST POP PUSH2 0x350 PUSH1 0x4 DUP1 CALLDATASIZE SUB DUP2 ADD SWAP1 PUSH2 0x34B SWAP2 SWAP1 PUSH2 0x2354 JUMP JUMPDEST PUSH2 0x10F3 JUMP JUMPDEST STOP JUMPDEST CALLVALUE DUP1 ISZERO PUSH2 0x35E JUMPI PUSH1 0x0 DUP1 REVERT JUMPDEST POP PUSH2 0x379 PUSH1 0x4 DUP1 CALLDATASIZE SUB DUP2 ADD SWAP1 PUSH2 0x374 SWAP2 SWAP1 PUSH2 0x25BD JUMP JUMPDEST PUSH2 0x131A JUMP JUMPDEST STOP JUMPDEST CALLVALUE DUP1 ISZERO PUSH2 0x387 JUMPI PUSH1 0x0 DUP1 REVERT JUMPDEST POP PUSH2 0x3A2 PUSH1 0x4 DUP1 CALLDATASIZE SUB DUP2 ADD SWAP1 PUSH2 0x39D SWAP2 SWAP1 PUSH2 0x265C JUMP JUMPDEST PUSH2 0x141B JUMP JUMPDEST PUSH1 0x40 MLOAD PUSH2 0x3B9 SWAP12 SWAP11 SWAP10 SWAP9 SWAP8 SWAP7 SWAP6 SWAP5 SWAP4 SWAP3 SWAP2 SWAP1 PUSH2 0x2723 JUMP JUMPDEST PUSH1 0x40 MLOAD DUP1 SWAP2 SUB SWAP1 RETURN JUMPDEST CALLVALUE DUP1 ISZERO PUSH2 0x3CE JUMPI PUSH1 0x0 DUP1 REVERT JUMPDEST POP PUSH2 0x3E9 PUSH1 0x4 DUP1 CALLDATASIZE SUB DUP2 ADD SWAP1 PUSH2 0x3E4 SWAP2 SWAP1 PUSH2 0x2354 JUMP JUMPDEST PUSH2 0x184A JUMP JUMPDEST PUSH1 0x40 MLOAD PUSH2 0x3FA SWAP6 SWAP5 SWAP4 SWAP3 SWAP2 SWAP1 PUSH2 0x27FF JUMP JUMPDEST PUSH1 0x40 MLOAD DUP1 SWAP2 SUB SWAP1 RETURN JUMPDEST CALLVALUE DUP1 ISZERO PUSH2 0x40F JUMPI PUSH1 0x0 DUP1 REVERT JUMPDEST POP PUSH2 0x42A PUSH1 0x4 DUP1 CALLDATASIZE SUB DUP2 ADD SWAP1 PUSH2 0x425 SWAP2 SWAP1 PUSH2 0x2354 JUMP JUMPDEST PUSH2 0x19A6 JUMP JUMPDEST PUSH1 0x40 MLOAD PUSH2 0x43B SWAP6 SWAP5 SWAP4 SWAP3 SWAP2 SWAP1 PUSH2 0x2860 JUMP JUMPDEST PUSH1 0x40 MLOAD DUP1 SWAP2 SUB SWAP1 RETURN JUMPDEST CALLVALUE DUP1 ISZERO PUSH2 0x450 JUMPI PUSH1 0x0 DUP1 REVERT JUMPDEST POP PUSH2 0x46B PUSH1 0x4 DUP1 CALLDATASIZE SUB DUP2 ADD SWAP1 PUSH2 0x466 SWAP2 SWAP1 PUSH2 0x265C JUMP JUMPDEST PUSH2 0x1B02 JUMP JUMPDEST PUSH1 0x40 MLOAD PUSH2 0x47D SWAP7 SWAP6 SWAP5 SWAP4 SWAP3 SWAP2 SWAP1 PUSH2 0x28C1 JUMP JUMPDEST PUSH1 0x40 MLOAD DUP1 SWAP2 SUB SWAP1 RETURN JUMPDEST CALLVALUE DUP1 ISZERO PUSH2 0x492 JUMPI PUSH1 0x0 DUP1 REVERT JUMPDEST POP PUSH2 0x49B PUSH2 0x1D06 JUMP JUMPDEST PUSH1 0x40 MLOAD PUSH2 0x4A8 SWAP2 SWAP1 PUSH2 0x2255 JUMP JUMPDEST PUSH1 0x40 MLOAD DUP1 SWAP2 SUB SWAP1 RETURN JUMPDEST PUSH1 0x6 PUSH1 0x20 MSTORE DUP1 PUSH1 0x0 MSTORE PUSH1 0x40 PUSH1 0x0 KECCAK256 PUSH1 0x0 SWAP2 POP SWAP1 POP DUP1 PUSH1 0x0 ADD PUSH1 0x0 SWAP1 SLOAD SWAP1 PUSH2 0x100 EXP SWAP1 DIV PUSH20 0xFFFFFFFFFFFFFFFFFFFFFFFFFFFFFFFFFFFFFFFF AND SWAP1 DUP1 PUSH1 0x1 ADD SLOAD SWAP1 DUP1 PUSH1 0x2 ADD SLOAD SWAP1 POP DUP4 JUMP JUMPDEST PUSH1 0x40 MLOAD DUP1 PUSH1 0xA0 ADD PUSH1 0x40 MSTORE DUP1 DUP6 DUP2 MSTORE PUSH1 0x20 ADD TIMESTAMP DUP2 MSTORE PUSH1 0x20 ADD DUP5 DUP2 MSTORE PUSH1 0x20 ADD DUP4 DUP2 MSTORE PUSH1 0x20 ADD DUP3 DUP2 MSTORE POP PUSH1 0x4 DUP6 PUSH1 0x40 MLOAD PUSH2 0x532 SWAP2 SWAP1 PUSH2 0x2973 JUMP JUMPDEST SWAP1 DUP2 MSTORE PUSH1 0x20 ADD PUSH1 0x40 MLOAD DUP1 SWAP2 SUB SWAP1 KECCAK256 PUSH1 0x0 DUP3 ADD MLOAD DUP2 PUSH1 0x0 ADD SWAP1 DUP2 PUSH2 0x555 SWAP2 SWAP1 PUSH2 0x2B96 JUMP JUMPDEST POP PUSH1 0x20 DUP3 ADD MLOAD DUP2 PUSH1 0x1 ADD SSTORE PUSH1 0x40 DUP3 ADD MLOAD DUP2 PUSH1 0x2 ADD SSTORE PUSH1 0x60 DUP3 ADD MLOAD DUP2 PUSH1 0x3 ADD SSTORE PUSH1 0x80 DUP3 ADD MLOAD DUP2 PUSH1 0x4 ADD SWAP1 DUP2 PUSH2 0x589 SWAP2 SWAP1 PUSH2 0x2B96 JUMP JUMPDEST POP SWAP1 POP POP PUSH1 0x5 PUSH1 0x0 DUP2 SLOAD DUP1 SWAP3 SWAP2 SWAP1 PUSH2 0x5A0 SWAP1 PUSH2 0x2C97 JUMP JUMPDEST SWAP2 SWAP1 POP SSTORE POP DUP4 PUSH1 0x40 MLOAD PUSH2 0x5B3 SWAP2 SWAP1 PUSH2 0x2973 JUMP JUMPDEST PUSH1 0x40 MLOAD DUP1 SWAP2 SUB SWAP1 KECCAK256 PUSH32 0xDA91CA404F3F8799FD57EFACB71A91F1F917A738B9BDB151DA1516DED0FF561C DUP5 DUP5 DUP5 PUSH1 0x40 MLOAD PUSH2 0x5EE SWAP4 SWAP3 SWAP2 SWAP1 PUSH2 0x2CDF JUMP JUMPDEST PUSH1 0x40 MLOAD DUP1 SWAP2 SUB SWAP1 LOG2 POP POP POP POP JUMP JUMPDEST PUSH1 0x5 SLOAD DUP2 JUMP JUMPDEST PUSH1 0x40 MLOAD DUP1 PUSH1 0x60 ADD PUSH1 0x40 MSTORE DUP1 CALLER PUSH20 0xFFFFFFFFFFFFFFFFFFFFFFFFFFFFFFFFFFFFFFFF AND DUP2 MSTORE PUSH1 0x20 ADD DUP4 DUP2 MSTORE PUSH1 0x20 ADD DUP3 DUP2 MSTORE POP PUSH1 0x6 PUSH1 0x0 CALLER PUSH20 0xFFFFFFFFFFFFFFFFFFFFFFFFFFFFFFFFFFFFFFFF AND PUSH20 0xFFFFFFFFFFFFFFFFFFFFFFFFFFFFFFFFFFFFFFFF AND DUP2 MSTORE PUSH1 0x20 ADD SWAP1 DUP2 MSTORE PUSH1 0x20 ADD PUSH1 0x0 KECCAK256 PUSH1 0x0 DUP3 ADD MLOAD DUP2 PUSH1 0x0 ADD PUSH1 0x0 PUSH2 0x100 EXP DUP2 SLOAD DUP2 PUSH20 0xFFFFFFFFFFFFFFFFFFFFFFFFFFFFFFFFFFFFFFFF MUL NOT AND SWAP1 DUP4 PUSH20 0xFFFFFFFFFFFFFFFFFFFFFFFFFFFFFFFFFFFFFFFF AND MUL OR SWAP1 SSTORE POP PUSH1 0x20 DUP3 ADD MLOAD DUP2 PUSH1 0x1 ADD SSTORE PUSH1 0x40 DUP3 ADD MLOAD DUP2 PUSH1 0x2 ADD SSTORE SWAP1 POP POP CALLER PUSH20 0xFFFFFFFFFFFFFFFFFFFFFFFFFFFFFFFFFFFFFFFF AND PUSH32 0x10ECDD796C2ED5F78151F7F44257A43D5735F73C03E24C4F41747F89FCD14068 DUP4 DUP4 PUSH1 0x40 MLOAD PUSH2 0x718 SWAP3 SWAP2 SWAP1 PUSH2 0x239D JUMP JUMPDEST PUSH1 0x40 MLOAD DUP1 SWAP2 SUB SWAP1 LOG2 POP POP JUMP JUMPDEST PUSH1 0x0 JUMPDEST PUSH1 0x3 DUP1 SLOAD SWAP1 POP DUP2 LT ISZERO PUSH2 0x868 JUMPI DUP3 DUP1 MLOAD SWAP1 PUSH1 0x20 ADD KECCAK256 PUSH1 0x3 DUP3 DUP2 SLOAD DUP2 LT PUSH2 0x750 JUMPI PUSH2 0x74F PUSH2 0x2D1D JUMP JUMPDEST JUMPDEST SWAP1 PUSH1 0x0 MSTORE PUSH1 0x20 PUSH1 0x0 KECCAK256 SWAP1 PUSH1 0xB MUL ADD PUSH1 0x0 ADD PUSH1 0x40 MLOAD PUSH2 0x76E SWAP2 SWAP1 PUSH2 0x2DEF JUMP JUMPDEST PUSH1 0x40 MLOAD DUP1 SWAP2 SUB SWAP1 KECCAK256 SUB PUSH2 0x855 JUMPI PUSH1 0x40 MLOAD DUP1 PUSH1 0x40 ADD PUSH1 0x40 MSTORE DUP1 PUSH1 0xA DUP2 MSTORE PUSH1 0x20 ADD PUSH32 0x496E205472616E73697400000000000000000000000000000000000000000000 DUP2 MSTORE POP PUSH1 0x3 DUP3 DUP2 SLOAD DUP2 LT PUSH2 0x7C5 JUMPI PUSH2 0x7C4 PUSH2 0x2D1D JUMP JUMPDEST JUMPDEST SWAP1 PUSH1 0x0 MSTORE PUSH1 0x20 PUSH1 0x0 KECCAK256 SWAP1 PUSH1 0xB MUL ADD PUSH1 0x7 ADD SWAP1 DUP2 PUSH2 0x7E2 SWAP2 SWAP1 PUSH2 0x2B96 JUMP JUMPDEST POP DUP2 PUSH1 0x3 DUP3 DUP2 SLOAD DUP2 LT PUSH2 0x7F8 JUMPI PUSH2 0x7F7 PUSH2 0x2D1D JUMP JUMPDEST JUMPDEST SWAP1 PUSH1 0x0 MSTORE PUSH1 0x20 PUSH1 0x0 KECCAK256 SWAP1 PUSH1 0xB MUL ADD PUSH1 0x9 ADD SWAP1 DUP2 PUSH2 0x815 SWAP2 SWAP1 PUSH2 0x2B96 JUMP JUMPDEST POP PUSH32 0xA647FDAE905DF85901F9C97AAAD099B6F5CDB392D26594D30E916ACB4B86F77C DUP4 DUP4 PUSH1 0x40 MLOAD PUSH2 0x847 SWAP3 SWAP2 SWAP1 PUSH2 0x2E06 JUMP JUMPDEST PUSH1 0x40 MLOAD DUP1 SWAP2 SUB SWAP1 LOG1 POP PUSH2 0x8A4 JUMP JUMPDEST DUP1 DUP1 PUSH2 0x860 SWAP1 PUSH2 0x2C97 JUMP JUMPDEST SWAP2 POP POP PUSH2 0x727 JUMP JUMPDEST POP PUSH1 0x40 MLOAD PUSH32 0x8C379A000000000000000000000000000000000000000000000000000000000 DUP2 MSTORE PUSH1 0x4 ADD PUSH2 0x89B SWAP1 PUSH2 0x2E89 JUMP JUMPDEST PUSH1 0x40 MLOAD DUP1 SWAP2 SUB SWAP1 REVERT JUMPDEST POP POP JUMP JUMPDEST PUSH1 0x1 SLOAD DUP2 JUMP JUMPDEST PUSH1 0x0 JUMPDEST PUSH1 0x3 DUP1 SLOAD SWAP1 POP DUP2 LT ISZERO PUSH2 0x9FB JUMPI DUP2 DUP1 MLOAD SWAP1 PUSH1 0x20 ADD KECCAK256 PUSH1 0x3 DUP3 DUP2 SLOAD DUP2 LT PUSH2 0x8DA JUMPI PUSH2 0x8D9 PUSH2 0x2D1D JUMP JUMPDEST JUMPDEST SWAP1 PUSH1 0x0 MSTORE PUSH1 0x20 PUSH1 0x0 KECCAK256 SWAP1 PUSH1 0xB MUL ADD PUSH1 0x0 ADD PUSH1 0x40 MLOAD PUSH2 0x8F8 SWAP2 SWAP1 PUSH2 0x2DEF JUMP JUMPDEST PUSH1 0x40 MLOAD DUP1 SWAP2 SUB SWAP1 KECCAK256 SUB PUSH2 0x9E8 JUMPI PUSH1 0x40 MLOAD DUP1 PUSH1 0x40 ADD PUSH1 0x40 MSTORE DUP1 PUSH1 0x9 DUP2 MSTORE PUSH1 0x20 ADD PUSH32 0x44656C6976657265640000000000000000000000000000000000000000000000 DUP2 MSTORE POP PUSH1 0x3 DUP3 DUP2 SLOAD DUP2 LT PUSH2 0x94F JUMPI PUSH2 0x94E PUSH2 0x2D1D JUMP JUMPDEST JUMPDEST SWAP1 PUSH1 0x0 MSTORE PUSH1 0x20 PUSH1 0x0 KECCAK256 SWAP1 PUSH1 0xB MUL ADD PUSH1 0x7 ADD SWAP1 DUP2 PUSH2 0x96C SWAP2 SWAP1 PUSH2 0x2B96 JUMP JUMPDEST POP PUSH1 0x1 PUSH1 0x3 DUP3 DUP2 SLOAD DUP2 LT PUSH2 0x983 JUMPI PUSH2 0x982 PUSH2 0x2D1D JUMP JUMPDEST JUMPDEST SWAP1 PUSH1 0x0 MSTORE PUSH1 0x20 PUSH1 0x0 KECCAK256 SWAP1 PUSH1 0xB MUL ADD PUSH1 0x6 ADD PUSH1 0x0 PUSH2 0x100 EXP DUP2 SLOAD DUP2 PUSH1 0xFF MUL NOT AND SWAP1 DUP4 ISZERO ISZERO MUL OR SWAP1 SSTORE POP PUSH32 0xFE45E082E373E0CD30323FEF887858A53D293DB708CED005856B63F9024345EE DUP3 PUSH1 0x40 MLOAD PUSH2 0x9DA SWAP2 SWAP1 PUSH2 0x2EA9 JUMP JUMPDEST PUSH1 0x40 MLOAD DUP1 SWAP2 SUB SWAP1 LOG1 POP PUSH2 0xA37 JUMP JUMPDEST DUP1 DUP1 PUSH2 0x9F3 SWAP1 PUSH2 0x2C97 JUMP JUMPDEST SWAP2 POP POP PUSH2 0x8B1 JUMP JUMPDEST POP PUSH1 0x40 MLOAD PUSH32 0x8C379A000000000000000000000000000000000000000000000000000000000 DUP2 MSTORE PUSH1 0x4 ADD PUSH2 0xA2E SWAP1 PUSH2 0x2E89 JUMP JUMPDEST PUSH1 0x40 MLOAD DUP1 SWAP2 SUB SWAP1 REVERT JUMPDEST POP JUMP JUMPDEST PUSH1 0x0 DUP1 PUSH1 0x0 PUSH1 0x6 PUSH1 0x0 DUP6 PUSH20 0xFFFFFFFFFFFFFFFFFFFFFFFFFFFFFFFFFFFFFFFF AND PUSH20 0xFFFFFFFFFFFFFFFFFFFFFFFFFFFFFFFFFFFFFFFF AND DUP2 MSTORE PUSH1 0x20 ADD SWAP1 DUP2 MSTORE PUSH1 0x20 ADD PUSH1 0x0 KECCAK256 SWAP1 POP DUP1 PUSH1 0x1 ADD SLOAD DUP2 PUSH1 0x2 ADD SLOAD SWAP3 POP SWAP3 POP POP SWAP2 POP SWAP2 JUMP JUMPDEST PUSH1 0x2 PUSH1 0x40 MLOAD DUP1 PUSH1 0xC0 ADD PUSH1 0x40 MSTORE DUP1 DUP9 DUP2 MSTORE PUSH1 0x20 ADD DUP8 DUP2 MSTORE PUSH1 0x20 ADD DUP7 DUP2 MSTORE PUSH1 0x20 ADD DUP6 DUP2 MSTORE PUSH1 0x20 ADD DUP5 DUP2 MSTORE PUSH1 0x20 ADD DUP4 PUSH20 0xFFFFFFFFFFFFFFFFFFFFFFFFFFFFFFFFFFFFFFFF AND DUP2 MSTORE POP SWAP1 DUP1 PUSH1 0x1 DUP2 SLOAD ADD DUP1 DUP3 SSTORE DUP1 SWAP2 POP POP PUSH1 0x1 SWAP1 SUB SWAP1 PUSH1 0x0 MSTORE PUSH1 0x20 PUSH1 0x0 KECCAK256 SWAP1 PUSH1 0x6 MUL ADD PUSH1 0x0 SWAP1 SWAP2 SWAP1 SWAP2 SWAP1 SWAP2 POP PUSH1 0x0 DUP3 ADD MLOAD DUP2 PUSH1 0x0 ADD SWAP1 DUP2 PUSH2 0xB17 SWAP2 SWAP1 PUSH2 0x2B96 JUMP JUMPDEST POP PUSH1 0x20 DUP3 ADD MLOAD DUP2 PUSH1 0x1 ADD SWAP1 DUP2 PUSH2 0xB2D SWAP2 SWAP1 PUSH2 0x2B96 JUMP JUMPDEST POP PUSH1 0x40 DUP3 ADD MLOAD DUP2 PUSH1 0x2 ADD SWAP1 DUP2 PUSH2 0xB43 SWAP2 SWAP1 PUSH2 0x2B96 JUMP JUMPDEST POP PUSH1 0x60 DUP3 ADD MLOAD DUP2 PUSH1 0x3 ADD SSTORE PUSH1 0x80 DUP3 ADD MLOAD DUP2 PUSH1 0x4 ADD SSTORE PUSH1 0xA0 DUP3 ADD MLOAD DUP2 PUSH1 0x5 ADD PUSH1 0x0 PUSH2 0x100 EXP DUP2 SLOAD DUP2 PUSH20 0xFFFFFFFFFFFFFFFFFFFFFFFFFFFFFFFFFFFFFFFF MUL NOT AND SWAP1 DUP4 PUSH20 0xFFFFFFFFFFFFFFFFFFFFFFFFFFFFFFFFFFFFFFFF AND MUL OR SWAP1 SSTORE POP POP POP PUSH1 0x0 DUP1 DUP2 SLOAD DUP1 SWAP3 SWAP2 SWAP1 PUSH2 0xBB3 SWAP1 PUSH2 0x2C97 JUMP JUMPDEST SWAP2 SWAP1 POP SSTORE POP PUSH32 0x28D5B2FD31C60B27A4052CA943E1E78299875807289BF4DDDD5C373AA2B0426B DUP7 DUP7 DUP4 PUSH1 0x40 MLOAD PUSH2 0xBEB SWAP4 SWAP3 SWAP2 SWAP1 PUSH2 0x2ECB JUMP JUMPDEST PUSH1 0x40 MLOAD DUP1 SWAP2 SUB SWAP1 LOG1 POP POP POP POP POP POP JUMP JUMPDEST PUSH1 0x0 PUSH2 0xC17 PUSH1 0x1 PUSH1 0x3 DUP1 SLOAD SWAP1 POP PUSH2 0xC12 SWAP2 SWAP1 PUSH2 0x2F10 JUMP JUMPDEST PUSH2 0x1D0C JUMP JUMPDEST PUSH1 0x40 MLOAD PUSH1 0x20 ADD PUSH2 0xC27 SWAP2 SWAP1 PUSH2 0x2F90 JUMP JUMPDEST PUSH1 0x40 MLOAD PUSH1 0x20 DUP2 DUP4 SUB SUB DUP2 MSTORE SWAP1 PUSH1 0x40 MSTORE SWAP1 POP PUSH1 0x3 PUSH1 0x40 MLOAD DUP1 PUSH2 0x160 ADD PUSH1 0x40 MSTORE DUP1 DUP4 DUP2 MSTORE PUSH1 0x20 ADD DUP7 DUP2 MSTORE PUSH1 0x20 ADD DUP6 DUP2 MSTORE PUSH1 0x20 ADD TIMESTAMP DUP2 MSTORE PUSH1 0x20 ADD PUSH1 0x0 DUP2 MSTORE PUSH1 0x20 ADD PUSH1 0x0 DUP2 MSTORE PUSH1 0x20 ADD PUSH1 0x0 ISZERO ISZERO DUP2 MSTORE PUSH1 0x20 ADD PUSH1 0x40 MLOAD DUP1 PUSH1 0x40 ADD PUSH1 0x40 MSTORE DUP1 PUSH1 0x7 DUP2 MSTORE PUSH1 0x20 ADD PUSH32 0x50656E64696E6700000000000000000000000000000000000000000000000000 DUP2 MSTORE POP DUP2 MSTORE PUSH1 0x20 ADD PUSH1 0x40 MLOAD DUP1 PUSH1 0x40 ADD PUSH1 0x40 MSTORE DUP1 PUSH1 0x7 DUP2 MSTORE PUSH1 0x20 ADD PUSH32 0x50656E64696E6700000000000000000000000000000000000000000000000000 DUP2 MSTORE POP DUP2 MSTORE PUSH1 0x20 ADD PUSH1 0x40 MLOAD DUP1 PUSH1 0x20 ADD PUSH1 0x40 MSTORE DUP1 PUSH1 0x0 DUP2 MSTORE POP DUP2 MSTORE PUSH1 0x20 ADD DUP5 DUP2 MSTORE POP SWAP1 DUP1 PUSH1 0x1 DUP2 SLOAD ADD DUP1 DUP3 SSTORE DUP1 SWAP2 POP POP PUSH1 0x1 SWAP1 SUB SWAP1 PUSH1 0x0 MSTORE PUSH1 0x20 PUSH1 0x0 KECCAK256 SWAP1 PUSH1 0xB MUL ADD PUSH1 0x0 SWAP1 SWAP2 SWAP1 SWAP2 SWAP1 SWAP2 POP PUSH1 0x0 DUP3 ADD MLOAD DUP2 PUSH1 0x0 ADD SWAP1 DUP2 PUSH2 0xD42 SWAP2 SWAP1 PUSH2 0x2B96 JUMP JUMPDEST POP PUSH1 0x20 DUP3 ADD MLOAD DUP2 PUSH1 0x1 ADD SWAP1 DUP2 PUSH2 0xD58 SWAP2 SWAP1 PUSH2 0x2B96 JUMP JUMPDEST POP PUSH1 0x40 DUP3 ADD MLOAD DUP2 PUSH1 0x2 ADD SWAP1 DUP2 PUSH2 0xD6E SWAP2 SWAP1 PUSH2 0x2B96 JUMP JUMPDEST POP PUSH1 0x60 DUP3 ADD MLOAD DUP2 PUSH1 0x3 ADD SSTORE PUSH1 0x80 DUP3 ADD MLOAD DUP2 PUSH1 0x4 ADD SSTORE PUSH1 0xA0 DUP3 ADD MLOAD DUP2 PUSH1 0x5 ADD SSTORE PUSH1 0xC0 DUP3 ADD MLOAD DUP2 PUSH1 0x6 ADD PUSH1 0x0 PUSH2 0x100 EXP DUP2 SLOAD DUP2 PUSH1 0xFF MUL NOT AND SWAP1 DUP4 ISZERO ISZERO MUL OR SWAP1 SSTORE POP PUSH1 0xE0 DUP3 ADD MLOAD DUP2 PUSH1 0x7 ADD SWAP1 DUP2 PUSH2 0xDC2 SWAP2 SWAP1 PUSH2 0x2B96 JUMP JUMPDEST POP PUSH2 0x100 DUP3 ADD MLOAD DUP2 PUSH1 0x8 ADD SWAP1 DUP2 PUSH2 0xDD9 SWAP2 SWAP1 PUSH2 0x2B96 JUMP JUMPDEST POP PUSH2 0x120 DUP3 ADD MLOAD DUP2 PUSH1 0x9 ADD SWAP1 DUP2 PUSH2 0xDF0 SWAP2 SWAP1 PUSH2 0x2B96 JUMP JUMPDEST POP PUSH2 0x140 DUP3 ADD MLOAD DUP2 PUSH1 0xA ADD SWAP1 DUP2 PUSH2 0xE07 SWAP2 SWAP1 PUSH2 0x2B96 JUMP JUMPDEST POP POP POP PUSH1 0x1 PUSH1 0x0 DUP2 SLOAD DUP1 SWAP3 SWAP2 SWAP1 PUSH2 0xE1D SWAP1 PUSH2 0x2C97 JUMP JUMPDEST SWAP2 SWAP1 POP SSTORE POP PUSH32 0x8849A69CAE32E2CEE951CBE777BB31142FB780F1177465095B1418334A28C826 DUP2 DUP6 DUP6 PUSH1 0x40 MLOAD PUSH2 0xE55 SWAP4 SWAP3 SWAP2 SWAP1 PUSH2 0x2FB2 JUMP JUMPDEST PUSH1 0x40 MLOAD DUP1 SWAP2 SUB SWAP1 LOG1 POP POP POP POP JUMP JUMPDEST PUSH1 0x8 SLOAD DUP2 JUMP JUMPDEST PUSH1 0x0 JUMPDEST PUSH1 0x3 DUP1 SLOAD SWAP1 POP DUP2 LT ISZERO PUSH2 0x10B2 JUMPI DUP4 DUP1 MLOAD SWAP1 PUSH1 0x20 ADD KECCAK256 PUSH1 0x3 DUP3 DUP2 SLOAD DUP2 LT PUSH2 0xE95 JUMPI PUSH2 0xE94 PUSH2 0x2D1D JUMP JUMPDEST JUMPDEST SWAP1 PUSH1 0x0 MSTORE PUSH1 0x20 PUSH1 0x0 KECCAK256 SWAP1 PUSH1 0xB MUL ADD PUSH1 0x0 ADD PUSH1 0x40 MLOAD PUSH2 0xEB3 SWAP2 SWAP1 PUSH2 0x2DEF JUMP JUMPDEST PUSH1 0x40 MLOAD DUP1 SWAP2 SUB SWAP1 KECCAK256 SUB PUSH2 0x109F JUMPI PUSH1 0x40 MLOAD DUP1 PUSH1 0x40 ADD PUSH1 0x40 MSTORE DUP1 PUSH1 0x7 DUP2 MSTORE PUSH1 0x20 ADD PUSH32 0x50656E64696E6700000000000000000000000000000000000000000000000000 DUP2 MSTORE POP DUP1 MLOAD SWAP1 PUSH1 0x20 ADD KECCAK256 PUSH1 0x3 DUP3 DUP2 SLOAD DUP2 LT PUSH2 0xF11 JUMPI PUSH2 0xF10 PUSH2 0x2D1D JUMP JUMPDEST JUMPDEST SWAP1 PUSH1 0x0 MSTORE PUSH1 0x20 PUSH1 0x0 KECCAK256 SWAP1 PUSH1 0xB MUL ADD PUSH1 0x8 ADD PUSH1 0x40 MLOAD PUSH2 0xF2F SWAP2 SWAP1 PUSH2 0x2DEF JUMP JUMPDEST PUSH1 0x40 MLOAD DUP1 SWAP2 SUB SWAP1 KECCAK256 EQ PUSH2 0xF77 JUMPI PUSH1 0x40 MLOAD PUSH32 0x8C379A000000000000000000000000000000000000000000000000000000000 DUP2 MSTORE PUSH1 0x4 ADD PUSH2 0xF6E SWAP1 PUSH2 0x304A JUMP JUMPDEST PUSH1 0x40 MLOAD DUP1 SWAP2 SUB SWAP1 REVERT JUMPDEST DUP3 PUSH1 0x3 DUP3 DUP2 SLOAD DUP2 LT PUSH2 0xF8C JUMPI PUSH2 0xF8B PUSH2 0x2D1D JUMP JUMPDEST JUMPDEST SWAP1 PUSH1 0x0 MSTORE PUSH1 0x20 PUSH1 0x0 KECCAK256 SWAP1 PUSH1 0xB MUL ADD PUSH1 0x5 ADD DUP2 SWAP1 SSTORE POP DUP2 PUSH1 0x3 DUP3 DUP2 SLOAD DUP2 LT PUSH2 0xFB6 JUMPI PUSH2 0xFB5 PUSH2 0x2D1D JUMP JUMPDEST JUMPDEST SWAP1 PUSH1 0x0 MSTORE PUSH1 0x20 PUSH1 0x0 KECCAK256 SWAP1 PUSH1 0xB MUL ADD PUSH1 0x4 ADD DUP2 SWAP1 SSTORE POP PUSH1 0x40 MLOAD DUP1 PUSH1 0x40 ADD PUSH1 0x40 MSTORE DUP1 PUSH1 0x8 DUP2 MSTORE PUSH1 0x20 ADD PUSH32 0x417070726F766564000000000000000000000000000000000000000000000000 DUP2 MSTORE POP PUSH1 0x3 DUP3 DUP2 SLOAD DUP2 LT PUSH2 0x1015 JUMPI PUSH2 0x1014 PUSH2 0x2D1D JUMP JUMPDEST JUMPDEST SWAP1 PUSH1 0x0 MSTORE PUSH1 0x20 PUSH1 0x0 KECCAK256 SWAP1 PUSH1 0xB MUL ADD PUSH1 0x8 ADD SWAP1 DUP2 PUSH2 0x1032 SWAP2 SWAP1 PUSH2 0x2B96 JUMP JUMPDEST POP CALLER PUSH20 0xFFFFFFFFFFFFFFFFFFFFFFFFFFFFFFFFFFFFFFFF AND DUP5 PUSH1 0x40 MLOAD PUSH2 0x1058 SWAP2 SWAP1 PUSH2 0x2973 JUMP JUMPDEST PUSH1 0x40 MLOAD DUP1 SWAP2 SUB SWAP1 KECCAK256 PUSH32 0xA960FFA51E319532722A62E005C77208BBF7AD09A24EAEDFBF5C8FE37271335E DUP6 DUP6 PUSH1 0x40 MLOAD PUSH2 0x1091 SWAP3 SWAP2 SWAP1 PUSH2 0x306A JUMP JUMPDEST PUSH1 0x40 MLOAD DUP1 SWAP2 SUB SWAP1 LOG3 POP PUSH2 0x10EE JUMP JUMPDEST DUP1 DUP1 PUSH2 0x10AA SWAP1 PUSH2 0x2C97 JUMP JUMPDEST SWAP2 POP POP PUSH2 0xE6C JUMP JUMPDEST POP PUSH1 0x40 MLOAD PUSH32 0x8C379A000000000000000000000000000000000000000000000000000000000 DUP2 MSTORE PUSH1 0x4 ADD PUSH2 0x10E5 SWAP1 PUSH2 0x2E89 JUMP JUMPDEST PUSH1 0x40 MLOAD DUP1 SWAP2 SUB SWAP1 REVERT JUMPDEST POP POP POP JUMP JUMPDEST PUSH1 0x0 JUMPDEST PUSH1 0x3 DUP1 SLOAD SWAP1 POP DUP2 LT ISZERO PUSH2 0x12DB JUMPI DUP2 DUP1 MLOAD SWAP1 PUSH1 0x20 ADD KECCAK256 PUSH1 0x3 DUP3 DUP2 SLOAD DUP2 LT PUSH2 0x111F JUMPI PUSH2 0x111E PUSH2 0x2D1D JUMP JUMPDEST JUMPDEST SWAP1 PUSH1 0x0 MSTORE PUSH1 0x20 PUSH1 0x0 KECCAK256 SWAP1 PUSH1 0xB MUL ADD PUSH1 0x0 ADD PUSH1 0x40 MLOAD PUSH2 0x113D SWAP2 SWAP1 PUSH2 0x2DEF JUMP JUMPDEST PUSH1 0x40 MLOAD DUP1 SWAP2 SUB SWAP1 KECCAK256 SUB PUSH2 0x12C8 JUMPI PUSH1 0x40 MLOAD DUP1 PUSH1 0x40 ADD PUSH1 0x40 MSTORE DUP1 PUSH1 0x7 DUP2 MSTORE PUSH1 0x20 ADD PUSH32 0x50656E64696E6700000000000000000000000000000000000000000000000000 DUP2 MSTORE POP DUP1 MLOAD SWAP1 PUSH1 0x20 ADD KECCAK256 PUSH1 0x3 DUP3 DUP2 SLOAD DUP2 LT PUSH2 0x119B JUMPI PUSH2 0x119A PUSH2 0x2D1D JUMP JUMPDEST JUMPDEST SWAP1 PUSH1 0x0 MSTORE PUSH1 0x20 PUSH1 0x0 KECCAK256 SWAP1 PUSH1 0xB MUL ADD PUSH1 0x8 ADD PUSH1 0x40 MLOAD PUSH2 0x11B9 SWAP2 SWAP1 PUSH2 0x2DEF JUMP JUMPDEST PUSH1 0x40 MLOAD DUP1 SWAP2 SUB SWAP1 KECCAK256 EQ PUSH2 0x1201 JUMPI PUSH1 0x40 MLOAD PUSH32 0x8C379A000000000000000000000000000000000000000000000000000000000 DUP2 MSTORE PUSH1 0x4 ADD PUSH2 0x11F8 SWAP1 PUSH2 0x304A JUMP JUMPDEST PUSH1 0x40 MLOAD DUP1 SWAP2 SUB SWAP1 REVERT JUMPDEST PUSH1 0x40 MLOAD DUP1 PUSH1 0x40 ADD PUSH1 0x40 MSTORE DUP1 PUSH1 0x8 DUP2 MSTORE PUSH1 0x20 ADD PUSH32 0x4465636C696E6564000000000000000000000000000000000000000000000000 DUP2 MSTORE POP PUSH1 0x3 DUP3 DUP2 SLOAD DUP2 LT PUSH2 0x124B JUMPI PUSH2 0x124A PUSH2 0x2D1D JUMP JUMPDEST JUMPDEST SWAP1 PUSH1 0x0 MSTORE PUSH1 0x20 PUSH1 0x0 KECCAK256 SWAP1 PUSH1 0xB MUL ADD PUSH1 0x8 ADD SWAP1 DUP2 PUSH2 0x1268 SWAP2 SWAP1 PUSH2 0x2B96 JUMP JUMPDEST POP CALLER PUSH20 0xFFFFFFFFFFFFFFFFFFFFFFFFFFFFFFFFFFFFFFFF AND DUP3 PUSH1 0x40 MLOAD PUSH2 0x128E SWAP2 SWAP1 PUSH2 0x2973 JUMP JUMPDEST PUSH1 0x40 MLOAD DUP1 SWAP2 SUB SWAP1 KECCAK256 PUSH32 0x8C721BB27A7AAECE78AEE375CE1D1DD252EC3EA2B8E37D4A2EDB5873726872A7 PUSH1 0x40 MLOAD PUSH1 0x40 MLOAD DUP1 SWAP2 SUB SWAP1 LOG3 POP PUSH2 0x1317 JUMP JUMPDEST DUP1 DUP1 PUSH2 0x12D3 SWAP1 PUSH2 0x2C97 JUMP JUMPDEST SWAP2 POP POP PUSH2 0x10F6 JUMP JUMPDEST POP PUSH1 0x40 MLOAD PUSH32 0x8C379A000000000000000000000000000000000000000000000000000000000 DUP2 MSTORE PUSH1 0x4 ADD PUSH2 0x130E SWAP1 PUSH2 0x2E89 JUMP JUMPDEST PUSH1 0x40 MLOAD DUP1 SWAP2 SUB SWAP1 REVERT JUMPDEST POP JUMP JUMPDEST PUSH1 0x40 MLOAD DUP1 PUSH1 0xA0 ADD PUSH1 0x40 MSTORE DUP1 DUP6 DUP2 MSTORE PUSH1 0x20 ADD TIMESTAMP DUP2 MSTORE PUSH1 0x20 ADD DUP5 DUP2 MSTORE PUSH1 0x20 ADD DUP4 DUP2 MSTORE PUSH1 0x20 ADD DUP3 DUP2 MSTORE POP PUSH1 0x7 DUP6 PUSH1 0x40 MLOAD PUSH2 0x1351 SWAP2 SWAP1 PUSH2 0x2973 JUMP JUMPDEST SWAP1 DUP2 MSTORE PUSH1 0x20 ADD PUSH1 0x40 MLOAD DUP1 SWAP2 SUB SWAP1 KECCAK256 PUSH1 0x0 DUP3 ADD MLOAD DUP2 PUSH1 0x0 ADD SWAP1 DUP2 PUSH2 0x1374 SWAP2 SWAP1 PUSH2 0x2B96 JUMP JUMPDEST POP PUSH1 0x20 DUP3 ADD MLOAD DUP2 PUSH1 0x1 ADD SSTORE PUSH1 0x40 DUP3 ADD MLOAD DUP2 PUSH1 0x2 ADD SSTORE PUSH1 0x60 DUP3 ADD MLOAD DUP2 PUSH1 0x3 ADD SWAP1 DUP2 PUSH2 0x139E SWAP2 SWAP1 PUSH2 0x2B96 JUMP JUMPDEST POP PUSH1 0x80 DUP3 ADD MLOAD DUP2 PUSH1 0x4 ADD SSTORE SWAP1 POP POP PUSH1 0x8 PUSH1 0x0 DUP2 SLOAD DUP1 SWAP3 SWAP2 SWAP1 PUSH2 0x13BF SWAP1 PUSH2 0x2C97 JUMP JUMPDEST SWAP2 SWAP1 POP SSTORE POP DUP4 PUSH1 0x40 MLOAD PUSH2 0x13D2 SWAP2 SWAP1 PUSH2 0x2973 JUMP JUMPDEST PUSH1 0x40 MLOAD DUP1 SWAP2 SUB SWAP1 KECCAK256 PUSH32 0xFEFF67426E3772FD3FBE509C3AD110EAF857081E22844755C939F6D1D8DAC4B0 DUP5 DUP5 DUP5 PUSH1 0x40 MLOAD PUSH2 0x140D SWAP4 SWAP3 SWAP2 SWAP1 PUSH2 0x3093 JUMP JUMPDEST PUSH1 0x40 MLOAD DUP1 SWAP2 SUB SWAP1 LOG2 POP POP POP POP JUMP JUMPDEST PUSH1 0x3 DUP2 DUP2 SLOAD DUP2 LT PUSH2 0x142B JUMPI PUSH1 0x0 DUP1 REVERT JUMPDEST SWAP1 PUSH1 0x0 MSTORE PUSH1 0x20 PUSH1 0x0 KECCAK256 SWAP1 PUSH1 0xB MUL ADD PUSH1 0x0 SWAP2 POP SWAP1 POP DUP1 PUSH1 0x0 ADD DUP1 SLOAD PUSH2 0x144E SWAP1 PUSH2 0x29B9 JUMP JUMPDEST DUP1 PUSH1 0x1F ADD PUSH1 0x20 DUP1 SWAP2 DIV MUL PUSH1 0x20 ADD PUSH1 0x40 MLOAD SWAP1 DUP2 ADD PUSH1 0x40 MSTORE DUP1 SWAP3 SWAP2 SWAP1 DUP2 DUP2 MSTORE PUSH1 0x20 ADD DUP3 DUP1 SLOAD PUSH2 0x147A SWAP1 PUSH2 0x29B9 JUMP JUMPDEST DUP1 ISZERO PUSH2 0x14C7 JUMPI DUP1 PUSH1 0x1F LT PUSH2 0x149C JUMPI PUSH2 0x100 DUP1 DUP4 SLOAD DIV MUL DUP4 MSTORE SWAP2 PUSH1 0x20 ADD SWAP2 PUSH2 0x14C7 JUMP JUMPDEST DUP3 ADD SWAP2 SWAP1 PUSH1 0x0 MSTORE PUSH1 0x20 PUSH1 0x0 KECCAK256 SWAP1 JUMPDEST DUP2 SLOAD DUP2 MSTORE SWAP1 PUSH1 0x1 ADD SWAP1 PUSH1 0x20 ADD DUP1 DUP4 GT PUSH2 0x14AA JUMPI DUP3 SWAP1 SUB PUSH1 0x1F AND DUP3 ADD SWAP2 JUMPDEST POP POP POP POP POP SWAP1 DUP1 PUSH1 0x1 ADD DUP1 SLOAD PUSH2 0x14DC SWAP1 PUSH2 0x29B9 JUMP JUMPDEST DUP1 PUSH1 0x1F ADD PUSH1 0x20 DUP1 SWAP2 DIV MUL PUSH1 0x20 ADD PUSH1 0x40 MLOAD SWAP1 DUP2 ADD PUSH1 0x40 MSTORE DUP1 SWAP3 SWAP2 SWAP1 DUP2 DUP2 MSTORE PUSH1 0x20 ADD DUP3 DUP1 SLOAD PUSH2 0x1508 SWAP1 PUSH2 0x29B9 JUMP JUMPDEST DUP1 ISZERO PUSH2 0x1555 JUMPI DUP1 PUSH1 0x1F LT PUSH2 0x152A JUMPI PUSH2 0x100 DUP1 DUP4 SLOAD DIV MUL DUP4 MSTORE SWAP2 PUSH1 0x20 ADD SWAP2 PUSH2 0x1555 JUMP JUMPDEST DUP3 ADD SWAP2 SWAP1 PUSH1 0x0 MSTORE PUSH1 0x20 PUSH1 0x0 KECCAK256 SWAP1 JUMPDEST DUP2 SLOAD DUP2 MSTORE SWAP1 PUSH1 0x1 ADD SWAP1 PUSH1 0x20 ADD DUP1 DUP4 GT PUSH2 0x1538 JUMPI DUP3 SWAP1 SUB PUSH1 0x1F AND DUP3 ADD SWAP2 JUMPDEST POP POP POP POP POP SWAP1 DUP1 PUSH1 0x2 ADD DUP1 SLOAD PUSH2 0x156A SWAP1 PUSH2 0x29B9 JUMP JUMPDEST DUP1 PUSH1 0x1F ADD PUSH1 0x20 DUP1 SWAP2 DIV MUL PUSH1 0x20 ADD PUSH1 0x40 MLOAD SWAP1 DUP2 ADD PUSH1 0x40 MSTORE DUP1 SWAP3 SWAP2 SWAP1 DUP2 DUP2 MSTORE PUSH1 0x20 ADD DUP3 DUP1 SLOAD PUSH2 0x1596 SWAP1 PUSH2 0x29B9 JUMP JUMPDEST DUP1 ISZERO PUSH2 0x15E3 JUMPI DUP1 PUSH1 0x1F LT PUSH2 0x15B8 JUMPI PUSH2 0x100 DUP1 DUP4 SLOAD DIV MUL DUP4 MSTORE SWAP2 PUSH1 0x20 ADD SWAP2 PUSH2 0x15E3 JUMP JUMPDEST DUP3 ADD SWAP2 SWAP1 PUSH1 0x0 MSTORE PUSH1 0x20 PUSH1 0x0 KECCAK256 SWAP1 JUMPDEST DUP2 SLOAD DUP2 MSTORE SWAP1 PUSH1 0x1 ADD SWAP1 PUSH1 0x20 ADD DUP1 DUP4 GT PUSH2 0x15C6 JUMPI DUP3 SWAP1 SUB PUSH1 0x1F AND DUP3 ADD SWAP2 JUMPDEST POP POP POP POP POP SWAP1 DUP1 PUSH1 0x3 ADD SLOAD SWAP1 DUP1 PUSH1 0x4 ADD SLOAD SWAP1 DUP1 PUSH1 0x5 ADD SLOAD SWAP1 DUP1 PUSH1 0x6 ADD PUSH1 0x0 SWAP1 SLOAD SWAP1 PUSH2 0x100 EXP SWAP1 DIV PUSH1 0xFF AND SWAP1 DUP1 PUSH1 0x7 ADD DUP1 SLOAD PUSH2 0x161D SWAP1 PUSH2 0x29B9 JUMP JUMPDEST DUP1 PUSH1 0x1F ADD PUSH1 0x20 DUP1 SWAP2 DIV MUL PUSH1 0x20 ADD PUSH1 0x40 MLOAD SWAP1 DUP2 ADD PUSH1 0x40 MSTORE DUP1 SWAP3 SWAP2 SWAP1 DUP2 DUP2 MSTORE PUSH1 0x20 ADD DUP3 DUP1 SLOAD PUSH2 0x1649 SWAP1 PUSH2 0x29B9 JUMP JUMPDEST DUP1 ISZERO PUSH2 0x1696 JUMPI DUP1 PUSH1 0x1F LT PUSH2 0x166B JUMPI PUSH2 0x100 DUP1 DUP4 SLOAD DIV MUL DUP4 MSTORE SWAP2 PUSH1 0x20 ADD SWAP2 PUSH2 0x1696 JUMP JUMPDEST DUP3 ADD SWAP2 SWAP1 PUSH1 0x0 MSTORE PUSH1 0x20 PUSH1 0x0 KECCAK256 SWAP1 JUMPDEST DUP2 SLOAD DUP2 MSTORE SWAP1 PUSH1 0x1 ADD SWAP1 PUSH1 0x20 ADD DUP1 DUP4 GT PUSH2 0x1679 JUMPI DUP3 SWAP1 SUB PUSH1 0x1F AND DUP3 ADD SWAP2 JUMPDEST POP POP POP POP POP SWAP1 DUP1 PUSH1 0x8 ADD DUP1 SLOAD PUSH2 0x16AB SWAP1 PUSH2 0x29B9 JUMP JUMPDEST DUP1 PUSH1 0x1F ADD PUSH1 0x20 DUP1 SWAP2 DIV MUL PUSH1 0x20 ADD PUSH1 0x40 MLOAD SWAP1 DUP2 ADD PUSH1 0x40 MSTORE DUP1 SWAP3 SWAP2 SWAP1 DUP2 DUP2 MSTORE PUSH1 0x20 ADD DUP3 DUP1 SLOAD PUSH2 0x16D7 SWAP1 PUSH2 0x29B9 JUMP JUMPDEST DUP1 ISZERO PUSH2 0x1724 JUMPI DUP1 PUSH1 0x1F LT PUSH2 0x16F9 JUMPI PUSH2 0x100 DUP1 DUP4 SLOAD DIV MUL DUP4 MSTORE SWAP2 PUSH1 0x20 ADD SWAP2 PUSH2 0x1724 JUMP JUMPDEST DUP3 ADD SWAP2 SWAP1 PUSH1 0x0 MSTORE PUSH1 0x20 PUSH1 0x0 KECCAK256 SWAP1 JUMPDEST DUP2 SLOAD DUP2 MSTORE SWAP1 PUSH1 0x1 ADD SWAP1 PUSH1 0x20 ADD DUP1 DUP4 GT PUSH2 0x1707 JUMPI DUP3 SWAP1 SUB PUSH1 0x1F AND DUP3 ADD SWAP2 JUMPDEST POP POP POP POP POP SWAP1 DUP1 PUSH1 0x9 ADD DUP1 SLOAD PUSH2 0x1739 SWAP1 PUSH2 0x29B9 JUMP JUMPDEST DUP1 PUSH1 0x1F ADD PUSH1 0x20 DUP1 SWAP2 DIV MUL PUSH1 0x20 ADD PUSH1 0x40 MLOAD SWAP1 DUP2 ADD PUSH1 0x40 MSTORE DUP1 SWAP3 SWAP2 SWAP1 DUP2 DUP2 MSTORE PUSH1 0x20 ADD DUP3 DUP1 SLOAD PUSH2 0x1765 SWAP1 PUSH2 0x29B9 JUMP JUMPDEST DUP1 ISZERO PUSH2 0x17B2 JUMPI DUP1 PUSH1 0x1F LT PUSH2 0x1787 JUMPI PUSH2 0x100 DUP1 DUP4 SLOAD DIV MUL DUP4 MSTORE SWAP2 PUSH1 0x20 ADD SWAP2 PUSH2 0x17B2 JUMP JUMPDEST DUP3 ADD SWAP2 SWAP1 PUSH1 0x0 MSTORE PUSH1 0x20 PUSH1 0x0 KECCAK256 SWAP1 JUMPDEST DUP2 SLOAD DUP2 MSTORE SWAP1 PUSH1 0x1 ADD SWAP1 PUSH1 0x20 ADD DUP1 DUP4 GT PUSH2 0x1795 JUMPI DUP3 SWAP1 SUB PUSH1 0x1F AND DUP3 ADD SWAP2 JUMPDEST POP POP POP POP POP SWAP1 DUP1 PUSH1 0xA ADD DUP1 SLOAD PUSH2 0x17C7 SWAP1 PUSH2 0x29B9 JUMP JUMPDEST DUP1 PUSH1 0x1F ADD PUSH1 0x20 DUP1 SWAP2 DIV MUL PUSH1 0x20 ADD PUSH1 0x40 MLOAD SWAP1 DUP2 ADD PUSH1 0x40 MSTORE DUP1 SWAP3 SWAP2 SWAP1 DUP2 DUP2 MSTORE PUSH1 0x20 ADD DUP3 DUP1 SLOAD PUSH2 0x17F3 SWAP1 PUSH2 0x29B9 JUMP JUMPDEST DUP1 ISZERO PUSH2 0x1840 JUMPI DUP1 PUSH1 0x1F LT PUSH2 0x1815 JUMPI PUSH2 0x100 DUP1 DUP4 SLOAD DIV MUL DUP4 MSTORE SWAP2 PUSH1 0x20 ADD SWAP2 PUSH2 0x1840 JUMP JUMPDEST DUP3 ADD SWAP2 SWAP1 PUSH1 0x0 MSTORE PUSH1 0x20 PUSH1 0x0 KECCAK256 SWAP1 JUMPDEST DUP2 SLOAD DUP2 MSTORE SWAP1 PUSH1 0x1 ADD SWAP1 PUSH1 0x20 ADD DUP1 DUP4 GT PUSH2 0x1823 JUMPI DUP3 SWAP1 SUB PUSH1 0x1F AND DUP3 ADD SWAP2 JUMPDEST POP POP POP POP POP SWAP1 POP DUP12 JUMP JUMPDEST PUSH1 0x4 DUP2 DUP1 MLOAD PUSH1 0x20 DUP2 ADD DUP3 ADD DUP1 MLOAD DUP5 DUP3 MSTORE PUSH1 0x20 DUP4 ADD PUSH1 0x20 DUP6 ADD KECCAK256 DUP2 DUP4 MSTORE DUP1 SWAP6 POP POP POP POP POP POP PUSH1 0x0 SWAP2 POP SWAP1 POP DUP1 PUSH1 0x0 ADD DUP1 SLOAD PUSH2 0x1883 SWAP1 PUSH2 0x29B9 JUMP JUMPDEST DUP1 PUSH1 0x1F ADD PUSH1 0x20 DUP1 SWAP2 DIV MUL PUSH1 0x20 ADD PUSH1 0x40 MLOAD SWAP1 DUP2 ADD PUSH1 0x40 MSTORE DUP1 SWAP3 SWAP2 SWAP1 DUP2 DUP2 MSTORE PUSH1 0x20 ADD DUP3 DUP1 SLOAD PUSH2 0x18AF SWAP1 PUSH2 0x29B9 JUMP JUMPDEST DUP1 ISZERO PUSH2 0x18FC JUMPI DUP1 PUSH1 0x1F LT PUSH2 0x18D1 JUMPI PUSH2 0x100 DUP1 DUP4 SLOAD DIV MUL DUP4 MSTORE SWAP2 PUSH1 0x20 ADD SWAP2 PUSH2 0x18FC JUMP JUMPDEST DUP3 ADD SWAP2 SWAP1 PUSH1 0x0 MSTORE PUSH1 0x20 PUSH1 0x0 KECCAK256 SWAP1 JUMPDEST DUP2 SLOAD DUP2 MSTORE SWAP1 PUSH1 0x1 ADD SWAP1 PUSH1 0x20 ADD DUP1 DUP4 GT PUSH2 0x18DF JUMPI DUP3 SWAP1 SUB PUSH1 0x1F AND DUP3 ADD SWAP2 JUMPDEST POP POP POP POP POP SWAP1 DUP1 PUSH1 0x1 ADD SLOAD SWAP1 DUP1 PUSH1 0x2 ADD SLOAD SWAP1 DUP1 PUSH1 0x3 ADD SLOAD SWAP1 DUP1 PUSH1 0x4 ADD DUP1 SLOAD PUSH2 0x1923 SWAP1 PUSH2 0x29B9 JUMP JUMPDEST DUP1 PUSH1 0x1F ADD PUSH1 0x20 DUP1 SWAP2 DIV MUL PUSH1 0x20 ADD PUSH1 0x40 MLOAD SWAP1 DUP2 ADD PUSH1 0x40 MSTORE DUP1 SWAP3 SWAP2 SWAP1 DUP2 DUP2 MSTORE PUSH1 0x20 ADD DUP3 DUP1 SLOAD PUSH2 0x194F SWAP1 PUSH2 0x29B9 JUMP JUMPDEST DUP1 ISZERO PUSH2 0x199C JUMPI DUP1 PUSH1 0x1F LT PUSH2 0x1971 JUMPI PUSH2 0x100 DUP1 DUP4 SLOAD DIV MUL DUP4 MSTORE SWAP2 PUSH1 0x20 ADD SWAP2 PUSH2 0x199C JUMP JUMPDEST DUP3 ADD SWAP2 SWAP1 PUSH1 0x0 MSTORE PUSH1 0x20 PUSH1 0x0 KECCAK256 SWAP1 JUMPDEST DUP2 SLOAD DUP2 MSTORE SWAP1 PUSH1 0x1 ADD SWAP1 PUSH1 0x20 ADD DUP1 DUP4 GT PUSH2 0x197F JUMPI DUP3 SWAP1 SUB PUSH1 0x1F AND DUP3 ADD SWAP2 JUMPDEST POP POP POP POP POP SWAP1 POP DUP6 JUMP JUMPDEST PUSH1 0x7 DUP2 DUP1 MLOAD PUSH1 0x20 DUP2 ADD DUP3 ADD DUP1 MLOAD DUP5 DUP3 MSTORE PUSH1 0x20 DUP4 ADD PUSH1 0x20 DUP6 ADD KECCAK256 DUP2 DUP4 MSTORE DUP1 SWAP6 POP POP POP POP POP POP PUSH1 0x0 SWAP2 POP SWAP1 POP DUP1 PUSH1 0x0 ADD DUP1 SLOAD PUSH2 0x19DF SWAP1 PUSH2 0x29B9 JUMP JUMPDEST DUP1 PUSH1 0x1F ADD PUSH1 0x20 DUP1 SWAP2 DIV MUL PUSH1 0x20 ADD PUSH1 0x40 MLOAD SWAP1 DUP2 ADD PUSH1 0x40 MSTORE DUP1 SWAP3 SWAP2 SWAP1 DUP2 DUP2 MSTORE PUSH1 0x20 ADD DUP3 DUP1 SLOAD PUSH2 0x1A0B SWAP1 PUSH2 0x29B9 JUMP JUMPDEST DUP1 ISZERO PUSH2 0x1A58 JUMPI DUP1 PUSH1 0x1F LT PUSH2 0x1A2D JUMPI PUSH2 0x100 DUP1 DUP4 SLOAD DIV MUL DUP4 MSTORE SWAP2 PUSH1 0x20 ADD SWAP2 PUSH2 0x1A58 JUMP JUMPDEST DUP3 ADD SWAP2 SWAP1 PUSH1 0x0 MSTORE PUSH1 0x20 PUSH1 0x0 KECCAK256 SWAP1 JUMPDEST DUP2 SLOAD DUP2 MSTORE SWAP1 PUSH1 0x1 ADD SWAP1 PUSH1 0x20 ADD DUP1 DUP4 GT PUSH2 0x1A3B JUMPI DUP3 SWAP1 SUB PUSH1 0x1F AND DUP3 ADD SWAP2 JUMPDEST POP POP POP POP POP SWAP1 DUP1 PUSH1 0x1 ADD SLOAD SWAP1 DUP1 PUSH1 0x2 ADD SLOAD SWAP1 DUP1 PUSH1 0x3 ADD DUP1 SLOAD PUSH2 0x1A79 SWAP1 PUSH2 0x29B9 JUMP JUMPDEST DUP1 PUSH1 0x1F ADD PUSH1 0x20 DUP1 SWAP2 DIV MUL PUSH1 0x20 ADD PUSH1 0x40 MLOAD SWAP1 DUP2 ADD PUSH1 0x40 MSTORE DUP1 SWAP3 SWAP2 SWAP1 DUP2 DUP2 MSTORE PUSH1 0x20 ADD DUP3 DUP1 SLOAD PUSH2 0x1AA5 SWAP1 PUSH2 0x29B9 JUMP JUMPDEST DUP1 ISZERO PUSH2 0x1AF2 JUMPI DUP1 PUSH1 0x1F LT PUSH2 0x1AC7 JUMPI PUSH2 0x100 DUP1 DUP4 SLOAD DIV MUL DUP4 MSTORE SWAP2 PUSH1 0x20 ADD SWAP2 PUSH2 0x1AF2 JUMP JUMPDEST DUP3 ADD SWAP2 SWAP1 PUSH1 0x0 MSTORE PUSH1 0x20 PUSH1 0x0 KECCAK256 SWAP1 JUMPDEST DUP2 SLOAD DUP2 MSTORE SWAP1 PUSH1 0x1 ADD SWAP1 PUSH1 0x20 ADD DUP1 DUP4 GT PUSH2 0x1AD5 JUMPI DUP3 SWAP1 SUB PUSH1 0x1F AND DUP3 ADD SWAP2 JUMPDEST POP POP POP POP POP SWAP1 DUP1 PUSH1 0x4 ADD SLOAD SWAP1 POP DUP6 JUMP JUMPDEST PUSH1 0x2 DUP2 DUP2 SLOAD DUP2 LT PUSH2 0x1B12 JUMPI PUSH1 0x0 DUP1 REVERT JUMPDEST SWAP1 PUSH1 0x0 MSTORE PUSH1 0x20 PUSH1 0x0 KECCAK256 SWAP1 PUSH1 0x6 MUL ADD PUSH1 0x0 SWAP2 POP SWAP1 POP DUP1 PUSH1 0x0 ADD DUP1 SLOAD PUSH2 0x1B35 SWAP1 PUSH2 0x29B9 JUMP JUMPDEST DUP1 PUSH1 0x1F ADD PUSH1 0x20 DUP1 SWAP2 DIV MUL PUSH1 0x20 ADD PUSH1 0x40 MLOAD SWAP1 DUP2 ADD PUSH1 0x40 MSTORE DUP1 SWAP3 SWAP2 SWAP1 DUP2 DUP2 MSTORE PUSH1 0x20 ADD DUP3 DUP1 SLOAD PUSH2 0x1B61 SWAP1 PUSH2 0x29B9 JUMP JUMPDEST DUP1 ISZERO PUSH2 0x1BAE JUMPI DUP1 PUSH1 0x1F LT PUSH2 0x1B83 JUMPI PUSH2 0x100 DUP1 DUP4 SLOAD DIV MUL DUP4 MSTORE SWAP2 PUSH1 0x20 ADD SWAP2 PUSH2 0x1BAE JUMP JUMPDEST DUP3 ADD SWAP2 SWAP1 PUSH1 0x0 MSTORE PUSH1 0x20 PUSH1 0x0 KECCAK256 SWAP1 JUMPDEST DUP2 SLOAD DUP2 MSTORE SWAP1 PUSH1 0x1 ADD SWAP1 PUSH1 0x20 ADD DUP1 DUP4 GT PUSH2 0x1B91 JUMPI DUP3 SWAP1 SUB PUSH1 0x1F AND DUP3 ADD SWAP2 JUMPDEST POP POP POP POP POP SWAP1 DUP1 PUSH1 0x1 ADD DUP1 SLOAD PUSH2 0x1BC3 SWAP1 PUSH2 0x29B9 JUMP JUMPDEST DUP1 PUSH1 0x1F ADD PUSH1 0x20 DUP1 SWAP2 DIV MUL PUSH1 0x20 ADD PUSH1 0x40 MLOAD SWAP1 DUP2 ADD PUSH1 0x40 MSTORE DUP1 SWAP3 SWAP2 SWAP1 DUP2 DUP2 MSTORE PUSH1 0x20 ADD DUP3 DUP1 SLOAD PUSH2 0x1BEF SWAP1 PUSH2 0x29B9 JUMP JUMPDEST DUP1 ISZERO PUSH2 0x1C3C JUMPI DUP1 PUSH1 0x1F LT PUSH2 0x1C11 JUMPI PUSH2 0x100 DUP1 DUP4 SLOAD DIV MUL DUP4 MSTORE SWAP2 PUSH1 0x20 ADD SWAP2 PUSH2 0x1C3C JUMP JUMPDEST DUP3 ADD SWAP2 SWAP1 PUSH1 0x0 MSTORE PUSH1 0x20 PUSH1 0x0 KECCAK256 SWAP1 JUMPDEST DUP2 SLOAD DUP2 MSTORE SWAP1 PUSH1 0x1 ADD SWAP1 PUSH1 0x20 ADD DUP1 DUP4 GT PUSH2 0x1C1F JUMPI DUP3 SWAP1 SUB PUSH1 0x1F AND DUP3 ADD SWAP2 JUMPDEST POP POP POP POP POP SWAP1 DUP1 PUSH1 0x2 ADD DUP1 SLOAD PUSH2 0x1C51 SWAP1 PUSH2 0x29B9 JUMP JUMPDEST DUP1 PUSH1 0x1F ADD PUSH1 0x20 DUP1 SWAP2 DIV MUL PUSH1 0x20 ADD PUSH1 0x40 MLOAD SWAP1 DUP2 ADD PUSH1 0x40 MSTORE DUP1 SWAP3 SWAP2 SWAP1 DUP2 DUP2 MSTORE PUSH1 0x20 ADD DUP3 DUP1 SLOAD PUSH2 0x1C7D SWAP1 PUSH2 0x29B9 JUMP JUMPDEST DUP1 ISZERO PUSH2 0x1CCA JUMPI DUP1 PUSH1 0x1F LT PUSH2 0x1C9F JUMPI PUSH2 0x100 DUP1 DUP4 SLOAD DIV MUL DUP4 MSTORE SWAP2 PUSH1 0x20 ADD SWAP2 PUSH2 0x1CCA JUMP JUMPDEST DUP3 ADD SWAP2 SWAP1 PUSH1 0x0 MSTORE PUSH1 0x20 PUSH1 0x0 KECCAK256 SWAP1 JUMPDEST DUP2 SLOAD DUP2 MSTORE SWAP1 PUSH1 0x1 ADD SWAP1 PUSH1 0x20 ADD DUP1 DUP4 GT PUSH2 0x1CAD JUMPI DUP3 SWAP1 SUB PUSH1 0x1F AND DUP3 ADD SWAP2 JUMPDEST POP POP POP POP POP SWAP1 DUP1 PUSH1 0x3 ADD SLOAD SWAP1 DUP1 PUSH1 0x4 ADD SLOAD SWAP1 DUP1 PUSH1 0x5 ADD PUSH1 0x0 SWAP1 SLOAD SWAP1 PUSH2 0x100 EXP SWAP1 DIV PUSH20 0xFFFFFFFFFFFFFFFFFFFFFFFFFFFFFFFFFFFFFFFF AND SWAP1 POP DUP7 JUMP JUMPDEST PUSH1 0x0 SLOAD DUP2 JUMP JUMPDEST PUSH1 0x60 PUSH1 0x0 DUP3 SUB PUSH2 0x1D53 JUMPI PUSH1 0x40 MLOAD DUP1 PUSH1 0x40 ADD PUSH1 0x40 MSTORE DUP1 PUSH1 0x1 DUP2 MSTORE PUSH1 0x20 ADD PUSH32 0x3000000000000000000000000000000000000000000000000000000000000000 DUP2 MSTORE POP SWAP1 POP PUSH2 0x1F28 JUMP JUMPDEST PUSH1 0x0 PUSH1 0x64 SWAP1 POP PUSH1 0x0 DUP2 PUSH8 0xFFFFFFFFFFFFFFFF DUP2 GT ISZERO PUSH2 0x1D75 JUMPI PUSH2 0x1D74 PUSH2 0x2046 JUMP JUMPDEST JUMPDEST PUSH1 0x40 MLOAD SWAP1 DUP1 DUP3 MSTORE DUP1 PUSH1 0x1F ADD PUSH1 0x1F NOT AND PUSH1 0x20 ADD DUP3 ADD PUSH1 0x40 MSTORE DUP1 ISZERO PUSH2 0x1DA7 JUMPI DUP2 PUSH1 0x20 ADD PUSH1 0x1 DUP3 MUL DUP1 CALLDATASIZE DUP4 CALLDATACOPY DUP1 DUP3 ADD SWAP2 POP POP SWAP1 POP JUMPDEST POP SWAP1 POP PUSH1 0x0 JUMPDEST PUSH1 0x0 DUP6 EQ PUSH2 0x1E39 JUMPI PUSH1 0x0 PUSH1 0xA DUP7 PUSH2 0x1DC4 SWAP2 SWAP1 PUSH2 0x3100 JUMP JUMPDEST SWAP1 POP PUSH1 0xA DUP7 PUSH2 0x1DD3 SWAP2 SWAP1 PUSH2 0x3131 JUMP JUMPDEST SWAP6 POP DUP1 PUSH1 0x30 PUSH2 0x1DE2 SWAP2 SWAP1 PUSH2 0x2F10 JUMP JUMPDEST PUSH1 0xF8 SHL DUP4 DUP4 DUP1 PUSH2 0x1DF1 SWAP1 PUSH2 0x2C97 JUMP JUMPDEST SWAP5 POP DUP2 MLOAD DUP2 LT PUSH2 0x1E04 JUMPI PUSH2 0x1E03 PUSH2 0x2D1D JUMP JUMPDEST JUMPDEST PUSH1 0x20 ADD ADD SWAP1 PUSH31 0xFFFFFFFFFFFFFFFFFFFFFFFFFFFFFFFFFFFFFFFFFFFFFFFFFFFFFFFFFFFFFF NOT AND SWAP1 DUP2 PUSH1 0x0 BYTE SWAP1 MSTORE8 POP POP PUSH2 0x1DAD JUMP JUMPDEST PUSH1 0x0 DUP2 PUSH8 0xFFFFFFFFFFFFFFFF DUP2 GT ISZERO PUSH2 0x1E55 JUMPI PUSH2 0x1E54 PUSH2 0x2046 JUMP JUMPDEST JUMPDEST PUSH1 0x40 MLOAD SWAP1 DUP1 DUP3 MSTORE DUP1 PUSH1 0x1F ADD PUSH1 0x1F NOT AND PUSH1 0x20 ADD DUP3 ADD PUSH1 0x40 MSTORE DUP1 ISZERO PUSH2 0x1E87 JUMPI DUP2 PUSH1 0x20 ADD PUSH1 0x1 DUP3 MUL DUP1 CALLDATASIZE DUP4 CALLDATACOPY DUP1 DUP3 ADD SWAP2 POP POP SWAP1 POP JUMPDEST POP SWAP1 POP PUSH1 0x0 JUMPDEST DUP3 DUP2 LT ISZERO PUSH2 0x1F1F JUMPI DUP4 DUP2 PUSH1 0x1 DUP6 PUSH2 0x1EA4 SWAP2 SWAP1 PUSH2 0x3162 JUMP JUMPDEST PUSH2 0x1EAE SWAP2 SWAP1 PUSH2 0x3162 JUMP JUMPDEST DUP2 MLOAD DUP2 LT PUSH2 0x1EBF JUMPI PUSH2 0x1EBE PUSH2 0x2D1D JUMP JUMPDEST JUMPDEST PUSH1 0x20 ADD ADD MLOAD PUSH1 0xF8 SHR PUSH1 0xF8 SHL DUP3 DUP3 DUP2 MLOAD DUP2 LT PUSH2 0x1EDD JUMPI PUSH2 0x1EDC PUSH2 0x2D1D JUMP JUMPDEST JUMPDEST PUSH1 0x20 ADD ADD SWAP1 PUSH31 0xFFFFFFFFFFFFFFFFFFFFFFFFFFFFFFFFFFFFFFFFFFFFFFFFFFFFFFFFFFFFFF NOT AND SWAP1 DUP2 PUSH1 0x0 BYTE SWAP1 MSTORE8 POP DUP1 DUP1 PUSH2 0x1F17 SWAP1 PUSH2 0x2C97 JUMP JUMPDEST SWAP2 POP POP PUSH2 0x1E8D JUMP JUMPDEST POP DUP1 SWAP5 POP POP POP POP POP JUMPDEST SWAP2 SWAP1 POP JUMP JUMPDEST PUSH1 0x0 PUSH1 0x40 MLOAD SWAP1 POP SWAP1 JUMP JUMPDEST PUSH1 0x0 DUP1 REVERT JUMPDEST PUSH1 0x0 DUP1 REVERT JUMPDEST PUSH1 0x0 PUSH20 0xFFFFFFFFFFFFFFFFFFFFFFFFFFFFFFFFFFFFFFFF DUP3 AND SWAP1 POP SWAP2 SWAP1 POP JUMP JUMPDEST PUSH1 0x0 PUSH2 0x1F6C DUP3 PUSH2 0x1F41 JUMP JUMPDEST SWAP1 POP SWAP2 SWAP1 POP JUMP JUMPDEST PUSH2 0x1F7C DUP2 PUSH2 0x1F61 JUMP JUMPDEST DUP2 EQ PUSH2 0x1F87 JUMPI PUSH1 0x0 DUP1 REVERT JUMPDEST POP JUMP JUMPDEST PUSH1 0x0 DUP2 CALLDATALOAD SWAP1 POP PUSH2 0x1F99 DUP2 PUSH2 0x1F73 JUMP JUMPDEST SWAP3 SWAP2 POP POP JUMP JUMPDEST PUSH1 0x0 PUSH1 0x20 DUP3 DUP5 SUB SLT ISZERO PUSH2 0x1FB5 JUMPI PUSH2 0x1FB4 PUSH2 0x1F37 JUMP JUMPDEST JUMPDEST PUSH1 0x0 PUSH2 0x1FC3 DUP5 DUP3 DUP6 ADD PUSH2 0x1F8A JUMP JUMPDEST SWAP2 POP POP SWAP3 SWAP2 POP POP JUMP JUMPDEST PUSH2 0x1FD5 DUP2 PUSH2 0x1F61 JUMP JUMPDEST DUP3 MSTORE POP POP JUMP JUMPDEST PUSH1 0x0 DUP2 SWAP1 POP SWAP2 SWAP1 POP JUMP JUMPDEST PUSH2 0x1FEE DUP2 PUSH2 0x1FDB JUMP JUMPDEST DUP3 MSTORE POP POP JUMP JUMPDEST PUSH1 0x0 PUSH1 0x60 DUP3 ADD SWAP1 POP PUSH2 0x2009 PUSH1 0x0 DUP4 ADD DUP7 PUSH2 0x1FCC JUMP JUMPDEST PUSH2 0x2016 PUSH1 0x20 DUP4 ADD DUP6 PUSH2 0x1FE5 JUMP JUMPDEST PUSH2 0x2023 PUSH1 0x40 DUP4 ADD DUP5 PUSH2 0x1FE5 JUMP JUMPDEST SWAP5 SWAP4 POP POP POP POP JUMP JUMPDEST PUSH1 0x0 DUP1 REVERT JUMPDEST PUSH1 0x0 DUP1 REVERT JUMPDEST PUSH1 0x0 PUSH1 0x1F NOT PUSH1 0x1F DUP4 ADD AND SWAP1 POP SWAP2 SWAP1 POP JUMP JUMPDEST PUSH32 0x4E487B7100000000000000000000000000000000000000000000000000000000 PUSH1 0x0 MSTORE PUSH1 0x41 PUSH1 0x4 MSTORE PUSH1 0x24 PUSH1 0x0 REVERT JUMPDEST PUSH2 0x207E DUP3 PUSH2 0x2035 JUMP JUMPDEST DUP2 ADD DUP2 DUP2 LT PUSH8 0xFFFFFFFFFFFFFFFF DUP3 GT OR ISZERO PUSH2 0x209D JUMPI PUSH2 0x209C PUSH2 0x2046 JUMP JUMPDEST JUMPDEST DUP1 PUSH1 0x40 MSTORE POP POP POP JUMP JUMPDEST PUSH1 0x0 PUSH2 0x20B0 PUSH2 0x1F2D JUMP JUMPDEST SWAP1 POP PUSH2 0x20BC DUP3 DUP3 PUSH2 0x2075 JUMP JUMPDEST SWAP2 SWAP1 POP JUMP JUMPDEST PUSH1 0x0 PUSH8 0xFFFFFFFFFFFFFFFF DUP3 GT ISZERO PUSH2 0x20DC JUMPI PUSH2 0x20DB PUSH2 0x2046 JUMP JUMPDEST JUMPDEST PUSH2 0x20E5 DUP3 PUSH2 0x2035 JUMP JUMPDEST SWAP1 POP PUSH1 0x20 DUP2 ADD SWAP1 POP SWAP2 SWAP1 POP JUMP JUMPDEST DUP3 DUP2 DUP4 CALLDATACOPY PUSH1 0x0 DUP4 DUP4 ADD MSTORE POP POP POP JUMP JUMPDEST PUSH1 0x0 PUSH2 0x2114 PUSH2 0x210F DUP5 PUSH2 0x20C1 JUMP JUMPDEST PUSH2 0x20A6 JUMP JUMPDEST SWAP1 POP DUP3 DUP2 MSTORE PUSH1 0x20 DUP2 ADD DUP5 DUP5 DUP5 ADD GT ISZERO PUSH2 0x2130 JUMPI PUSH2 0x212F PUSH2 0x2030 JUMP JUMPDEST JUMPDEST PUSH2 0x213B DUP5 DUP3 DUP6 PUSH2 0x20F2 JUMP JUMPDEST POP SWAP4 SWAP3 POP POP POP JUMP JUMPDEST PUSH1 0x0 DUP3 PUSH1 0x1F DUP4 ADD SLT PUSH2 0x2158 JUMPI PUSH2 0x2157 PUSH2 0x202B JUMP JUMPDEST JUMPDEST DUP2 CALLDATALOAD PUSH2 0x2168 DUP5 DUP3 PUSH1 0x20 DUP7 ADD PUSH2 0x2101 JUMP JUMPDEST SWAP2 POP POP SWAP3 SWAP2 POP POP JUMP JUMPDEST PUSH1 0x0 DUP2 SWAP1 POP SWAP2 SWAP1 POP JUMP JUMPDEST PUSH2 0x2184 DUP2 PUSH2 0x2171 JUMP JUMPDEST DUP2 EQ PUSH2 0x218F JUMPI PUSH1 0x0 DUP1 REVERT JUMPDEST POP JUMP JUMPDEST PUSH1 0x0 DUP2 CALLDATALOAD SWAP1 POP PUSH2 0x21A1 DUP2 PUSH2 0x217B JUMP JUMPDEST SWAP3 SWAP2 POP POP JUMP JUMPDEST PUSH1 0x0 DUP1 PUSH1 0x0 DUP1 PUSH1 0x80 DUP6 DUP8 SUB SLT ISZERO PUSH2 0x21C1 JUMPI PUSH2 0x21C0 PUSH2 0x1F37 JUMP JUMPDEST JUMPDEST PUSH1 0x0 DUP6 ADD CALLDATALOAD PUSH8 0xFFFFFFFFFFFFFFFF DUP2 GT ISZERO PUSH2 0x21DF JUMPI PUSH2 0x21DE PUSH2 0x1F3C JUMP JUMPDEST JUMPDEST PUSH2 0x21EB DUP8 DUP3 DUP9 ADD PUSH2 0x2143 JUMP JUMPDEST SWAP5 POP POP PUSH1 0x20 PUSH2 0x21FC DUP8 DUP3 DUP9 ADD PUSH2 0x2192 JUMP JUMPDEST SWAP4 POP POP PUSH1 0x40 PUSH2 0x220D DUP8 DUP3 DUP9 ADD PUSH2 0x2192 JUMP JUMPDEST SWAP3 POP POP PUSH1 0x60 DUP6 ADD CALLDATALOAD PUSH8 0xFFFFFFFFFFFFFFFF DUP2 GT ISZERO PUSH2 0x222E JUMPI PUSH2 0x222D PUSH2 0x1F3C JUMP JUMPDEST JUMPDEST PUSH2 0x223A DUP8 DUP3 DUP9 ADD PUSH2 0x2143 JUMP JUMPDEST SWAP2 POP POP SWAP3 SWAP6 SWAP2 SWAP5 POP SWAP3 POP JUMP JUMPDEST PUSH2 0x224F DUP2 PUSH2 0x2171 JUMP JUMPDEST DUP3 MSTORE POP POP JUMP JUMPDEST PUSH1 0x0 PUSH1 0x20 DUP3 ADD SWAP1 POP PUSH2 0x226A PUSH1 0x0 DUP4 ADD DUP5 PUSH2 0x2246 JUMP JUMPDEST SWAP3 SWAP2 POP POP JUMP JUMPDEST PUSH2 0x2279 DUP2 PUSH2 0x1FDB JUMP JUMPDEST DUP2 EQ PUSH2 0x2284 JUMPI PUSH1 0x0 DUP1 REVERT JUMPDEST POP JUMP JUMPDEST PUSH1 0x0 DUP2 CALLDATALOAD SWAP1 POP PUSH2 0x2296 DUP2 PUSH2 0x2270 JUMP JUMPDEST SWAP3 SWAP2 POP POP JUMP JUMPDEST PUSH1 0x0 DUP1 PUSH1 0x40 DUP4 DUP6 SUB SLT ISZERO PUSH2 0x22B3 JUMPI PUSH2 0x22B2 PUSH2 0x1F37 JUMP JUMPDEST JUMPDEST PUSH1 0x0 PUSH2 0x22C1 DUP6 DUP3 DUP7 ADD PUSH2 0x2287 JUMP JUMPDEST SWAP3 POP POP PUSH1 0x20 PUSH2 0x22D2 DUP6 DUP3 DUP7 ADD PUSH2 0x2287 JUMP JUMPDEST SWAP2 POP POP SWAP3 POP SWAP3 SWAP1 POP JUMP JUMPDEST PUSH1 0x0 DUP1 PUSH1 0x40 DUP4 DUP6 SUB SLT ISZERO PUSH2 0x22F3 JUMPI PUSH2 0x22F2 PUSH2 0x1F37 JUMP JUMPDEST JUMPDEST PUSH1 0x0 DUP4 ADD CALLDATALOAD PUSH8 0xFFFFFFFFFFFFFFFF DUP2 GT ISZERO PUSH2 0x2311 JUMPI PUSH2 0x2310 PUSH2 0x1F3C JUMP JUMPDEST JUMPDEST PUSH2 0x231D DUP6 DUP3 DUP7 ADD PUSH2 0x2143 JUMP JUMPDEST SWAP3 POP POP PUSH1 0x20 DUP4 ADD CALLDATALOAD PUSH8 0xFFFFFFFFFFFFFFFF DUP2 GT ISZERO PUSH2 0x233E JUMPI PUSH2 0x233D PUSH2 0x1F3C JUMP JUMPDEST JUMPDEST PUSH2 0x234A DUP6 DUP3 DUP7 ADD PUSH2 0x2143 JUMP JUMPDEST SWAP2 POP POP SWAP3 POP SWAP3 SWAP1 POP JUMP JUMPDEST PUSH1 0x0 PUSH1 0x20 DUP3 DUP5 SUB SLT ISZERO PUSH2 0x236A JUMPI PUSH2 0x2369 PUSH2 0x1F37 JUMP JUMPDEST JUMPDEST PUSH1 0x0 DUP3 ADD CALLDATALOAD PUSH8 0xFFFFFFFFFFFFFFFF DUP2 GT ISZERO PUSH2 0x2388 JUMPI PUSH2 0x2387 PUSH2 0x1F3C JUMP JUMPDEST JUMPDEST PUSH2 0x2394 DUP5 DUP3 DUP6 ADD PUSH2 0x2143 JUMP JUMPDEST SWAP2 POP POP SWAP3 SWAP2 POP POP JUMP JUMPDEST PUSH1 0x0 PUSH1 0x40 DUP3 ADD SWAP1 POP PUSH2 0x23B2 PUSH1 0x0 DUP4 ADD DUP6 PUSH2 0x1FE5 JUMP JUMPDEST PUSH2 0x23BF PUSH1 0x20 DUP4 ADD DUP5 PUSH2 0x1FE5 JUMP JUMPDEST SWAP4 SWAP3 POP POP POP JUMP JUMPDEST PUSH1 0x0 DUP1 PUSH1 0x0 DUP1 PUSH1 0x0 DUP1 PUSH1 0xC0 DUP8 DUP10 SUB SLT ISZERO PUSH2 0x23E3 JUMPI PUSH2 0x23E2 PUSH2 0x1F37 JUMP JUMPDEST JUMPDEST PUSH1 0x0 DUP8 ADD CALLDATALOAD PUSH8 0xFFFFFFFFFFFFFFFF DUP2 GT ISZERO PUSH2 0x2401 JUMPI PUSH2 0x2400 PUSH2 0x1F3C JUMP JUMPDEST JUMPDEST PUSH2 0x240D DUP10 DUP3 DUP11 ADD PUSH2 0x2143 JUMP JUMPDEST SWAP7 POP POP PUSH1 0x20 DUP8 ADD CALLDATALOAD PUSH8 0xFFFFFFFFFFFFFFFF DUP2 GT ISZERO PUSH2 0x242E JUMPI PUSH2 0x242D PUSH2 0x1F3C JUMP JUMPDEST JUMPDEST PUSH2 0x243A DUP10 DUP3 DUP11 ADD PUSH2 0x2143 JUMP JUMPDEST SWAP6 POP POP PUSH1 0x40 DUP8 ADD CALLDATALOAD PUSH8 0xFFFFFFFFFFFFFFFF DUP2 GT ISZERO PUSH2 0x245B JUMPI PUSH2 0x245A PUSH2 0x1F3C JUMP JUMPDEST JUMPDEST PUSH2 0x2467 DUP10 DUP3 DUP11 ADD PUSH2 0x2143 JUMP JUMPDEST SWAP5 POP POP PUSH1 0x60 PUSH2 0x2478 DUP10 DUP3 DUP11 ADD PUSH2 0x2287 JUMP JUMPDEST SWAP4 POP POP PUSH1 0x80 PUSH2 0x2489 DUP10 DUP3 DUP11 ADD PUSH2 0x2287 JUMP JUMPDEST SWAP3 POP POP PUSH1 0xA0 PUSH2 0x249A DUP10 DUP3 DUP11 ADD PUSH2 0x1F8A JUMP JUMPDEST SWAP2 POP POP SWAP3 SWAP6 POP SWAP3 SWAP6 POP SWAP3 SWAP6 JUMP JUMPDEST PUSH1 0x0 DUP1 PUSH1 0x0 PUSH1 0x60 DUP5 DUP7 SUB SLT ISZERO PUSH2 0x24C0 JUMPI PUSH2 0x24BF PUSH2 0x1F37 JUMP JUMPDEST JUMPDEST PUSH1 0x0 DUP5 ADD CALLDATALOAD PUSH8 0xFFFFFFFFFFFFFFFF DUP2 GT ISZERO PUSH2 0x24DE JUMPI PUSH2 0x24DD PUSH2 0x1F3C JUMP JUMPDEST JUMPDEST PUSH2 0x24EA DUP7 DUP3 DUP8 ADD PUSH2 0x2143 JUMP JUMPDEST SWAP4 POP POP PUSH1 0x20 DUP5 ADD CALLDATALOAD PUSH8 0xFFFFFFFFFFFFFFFF DUP2 GT ISZERO PUSH2 0x250B JUMPI PUSH2 0x250A PUSH2 0x1F3C JUMP JUMPDEST JUMPDEST PUSH2 0x2517 DUP7 DUP3 DUP8 ADD PUSH2 0x2143 JUMP JUMPDEST SWAP3 POP POP PUSH1 0x40 DUP5 ADD CALLDATALOAD PUSH8 0xFFFFFFFFFFFFFFFF DUP2 GT ISZERO PUSH2 0x2538 JUMPI PUSH2 0x2537 PUSH2 0x1F3C JUMP JUMPDEST JUMPDEST PUSH2 0x2544 DUP7 DUP3 DUP8 ADD PUSH2 0x2143 JUMP JUMPDEST SWAP2 POP POP SWAP3 POP SWAP3 POP SWAP3 JUMP JUMPDEST PUSH1 0x0 DUP1 PUSH1 0x0 PUSH1 0x60 DUP5 DUP7 SUB SLT ISZERO PUSH2 0x2567 JUMPI PUSH2 0x2566 PUSH2 0x1F37 JUMP JUMPDEST JUMPDEST PUSH1 0x0 DUP5 ADD CALLDATALOAD PUSH8 0xFFFFFFFFFFFFFFFF DUP2 GT ISZERO PUSH2 0x2585 JUMPI PUSH2 0x2584 PUSH2 0x1F3C JUMP JUMPDEST JUMPDEST PUSH2 0x2591 DUP7 DUP3 DUP8 ADD PUSH2 0x2143 JUMP JUMPDEST SWAP4 POP POP PUSH1 0x20 PUSH2 0x25A2 DUP7 DUP3 DUP8 ADD PUSH2 0x2192 JUMP JUMPDEST SWAP3 POP POP PUSH1 0x40 PUSH2 0x25B3 DUP7 DUP3 DUP8 ADD PUSH2 0x2192 JUMP JUMPDEST SWAP2 POP POP SWAP3 POP SWAP3 POP SWAP3 JUMP JUMPDEST PUSH1 0x0 DUP1 PUSH1 0x0 DUP1 PUSH1 0x80 DUP6 DUP8 SUB SLT ISZERO PUSH2 0x25D7 JUMPI PUSH2 0x25D6 PUSH2 0x1F37 JUMP JUMPDEST JUMPDEST PUSH1 0x0 DUP6 ADD CALLDATALOAD PUSH8 0xFFFFFFFFFFFFFFFF DUP2 GT ISZERO PUSH2 0x25F5 JUMPI PUSH2 0x25F4 PUSH2 0x1F3C JUMP JUMPDEST JUMPDEST PUSH2 0x2601 DUP8 DUP3 DUP9 ADD PUSH2 0x2143 JUMP JUMPDEST SWAP5 POP POP PUSH1 0x20 PUSH2 0x2612 DUP8 DUP3 DUP9 ADD PUSH2 0x2192 JUMP JUMPDEST SWAP4 POP POP PUSH1 0x40 DUP6 ADD CALLDATALOAD PUSH8 0xFFFFFFFFFFFFFFFF DUP2 GT ISZERO PUSH2 0x2633 JUMPI PUSH2 0x2632 PUSH2 0x1F3C JUMP JUMPDEST JUMPDEST PUSH2 0x263F DUP8 DUP3 DUP9 ADD PUSH2 0x2143 JUMP JUMPDEST SWAP3 POP POP PUSH1 0x60 PUSH2 0x2650 DUP8 DUP3 DUP9 ADD PUSH2 0x2192 JUMP JUMPDEST SWAP2 POP POP SWAP3 SWAP6 SWAP2 SWAP5 POP SWAP3 POP JUMP JUMPDEST PUSH1 0x0 PUSH1 0x20 DUP3 DUP5 SUB SLT ISZERO PUSH2 0x2672 JUMPI PUSH2 0x2671 PUSH2 0x1F37 JUMP JUMPDEST JUMPDEST PUSH1 0x0 PUSH2 0x2680 DUP5 DUP3 DUP6 ADD PUSH2 0x2192 JUMP JUMPDEST SWAP2 POP POP SWAP3 SWAP2 POP POP JUMP JUMPDEST PUSH1 0x0 DUP2 MLOAD SWAP1 POP SWAP2 SWAP1 POP JUMP JUMPDEST PUSH1 0x0 DUP3 DUP3 MSTORE PUSH1 0x20 DUP3 ADD SWAP1 POP SWAP3 SWAP2 POP POP JUMP JUMPDEST PUSH1 0x0 JUMPDEST DUP4 DUP2 LT ISZERO PUSH2 0x26C3 JUMPI DUP1 DUP3 ADD MLOAD DUP2 DUP5 ADD MSTORE PUSH1 0x20 DUP2 ADD SWAP1 POP PUSH2 0x26A8 JUMP JUMPDEST PUSH1 0x0 DUP5 DUP5 ADD MSTORE POP POP POP POP JUMP JUMPDEST PUSH1 0x0 PUSH2 0x26DA DUP3 PUSH2 0x2689 JUMP JUMPDEST PUSH2 0x26E4 DUP2 DUP6 PUSH2 0x2694 JUMP JUMPDEST SWAP4 POP PUSH2 0x26F4 DUP2 DUP6 PUSH1 0x20 DUP7 ADD PUSH2 0x26A5 JUMP JUMPDEST PUSH2 0x26FD DUP2 PUSH2 0x2035 JUMP JUMPDEST DUP5 ADD SWAP2 POP POP SWAP3 SWAP2 POP POP JUMP JUMPDEST PUSH1 0x0 DUP2 ISZERO ISZERO SWAP1 POP SWAP2 SWAP1 POP JUMP JUMPDEST PUSH2 0x271D DUP2 PUSH2 0x2708 JUMP JUMPDEST DUP3 MSTORE POP POP JUMP JUMPDEST PUSH1 0x0 PUSH2 0x160 DUP3 ADD SWAP1 POP DUP2 DUP2 SUB PUSH1 0x0 DUP4 ADD MSTORE PUSH2 0x273E DUP2 DUP15 PUSH2 0x26CF JUMP JUMPDEST SWAP1 POP DUP2 DUP2 SUB PUSH1 0x20 DUP4 ADD MSTORE PUSH2 0x2752 DUP2 DUP14 PUSH2 0x26CF JUMP JUMPDEST SWAP1 POP DUP2 DUP2 SUB PUSH1 0x40 DUP4 ADD MSTORE PUSH2 0x2766 DUP2 DUP13 PUSH2 0x26CF JUMP JUMPDEST SWAP1 POP PUSH2 0x2775 PUSH1 0x60 DUP4 ADD DUP12 PUSH2 0x2246 JUMP JUMPDEST PUSH2 0x2782 PUSH1 0x80 DUP4 ADD DUP11 PUSH2 0x2246 JUMP JUMPDEST PUSH2 0x278F PUSH1 0xA0 DUP4 ADD DUP10 PUSH2 0x2246 JUMP JUMPDEST PUSH2 0x279C PUSH1 0xC0 DUP4 ADD DUP9 PUSH2 0x2714 JUMP JUMPDEST DUP2 DUP2 SUB PUSH1 0xE0 DUP4 ADD MSTORE PUSH2 0x27AE DUP2 DUP8 PUSH2 0x26CF JUMP JUMPDEST SWAP1 POP DUP2 DUP2 SUB PUSH2 0x100 DUP4 ADD MSTORE PUSH2 0x27C3 DUP2 DUP7 PUSH2 0x26CF JUMP JUMPDEST SWAP1 POP DUP2 DUP2 SUB PUSH2 0x120 DUP4 ADD MSTORE PUSH2 0x27D8 DUP2 DUP6 PUSH2 0x26CF JUMP JUMPDEST SWAP1 POP DUP2 DUP2 SUB PUSH2 0x140 DUP4 ADD MSTORE PUSH2 0x27ED DUP2 DUP5 PUSH2 0x26CF JUMP JUMPDEST SWAP1 POP SWAP13 SWAP12 POP POP POP POP POP POP POP POP POP POP POP POP JUMP JUMPDEST PUSH1 0x0 PUSH1 0xA0 DUP3 ADD SWAP1 POP DUP2 DUP2 SUB PUSH1 0x0 DUP4 ADD MSTORE PUSH2 0x2819 DUP2 DUP9 PUSH2 0x26CF JUMP JUMPDEST SWAP1 POP PUSH2 0x2828 PUSH1 0x20 DUP4 ADD DUP8 PUSH2 0x2246 JUMP JUMPDEST PUSH2 0x2835 PUSH1 0x40 DUP4 ADD DUP7 PUSH2 0x2246 JUMP JUMPDEST PUSH2 0x2842 PUSH1 0x60 DUP4 ADD DUP6 PUSH2 0x2246 JUMP JUMPDEST DUP2 DUP2 SUB PUSH1 0x80 DUP4 ADD MSTORE PUSH2 0x2854 DUP2 DUP5 PUSH2 0x26CF JUMP JUMPDEST SWAP1 POP SWAP7 SWAP6 POP POP POP POP POP POP JUMP JUMPDEST PUSH1 0x0 PUSH1 0xA0 DUP3 ADD SWAP1 POP DUP2 DUP2 SUB PUSH1 0x0 DUP4 ADD MSTORE PUSH2 0x287A DUP2 DUP9 PUSH2 0x26CF JUMP JUMPDEST SWAP1 POP PUSH2 0x2889 PUSH1 0x20 DUP4 ADD DUP8 PUSH2 0x2246 JUMP JUMPDEST PUSH2 0x2896 PUSH1 0x40 DUP4 ADD DUP7 PUSH2 0x2246 JUMP JUMPDEST DUP2 DUP2 SUB PUSH1 0x60 DUP4 ADD MSTORE PUSH2 0x28A8 DUP2 DUP6 PUSH2 0x26CF JUMP JUMPDEST SWAP1 POP PUSH2 0x28B7 PUSH1 0x80 DUP4 ADD DUP5 PUSH2 0x2246 JUMP JUMPDEST SWAP7 SWAP6 POP POP POP POP POP POP JUMP JUMPDEST PUSH1 0x0 PUSH1 0xC0 DUP3 ADD SWAP1 POP DUP2 DUP2 SUB PUSH1 0x0 DUP4 ADD MSTORE PUSH2 0x28DB DUP2 DUP10 PUSH2 0x26CF JUMP JUMPDEST SWAP1 POP DUP2 DUP2 SUB PUSH1 0x20 DUP4 ADD MSTORE PUSH2 0x28EF DUP2 DUP9 PUSH2 0x26CF JUMP JUMPDEST SWAP1 POP DUP2 DUP2 SUB PUSH1 0x40 DUP4 ADD MSTORE PUSH2 0x2903 DUP2 DUP8 PUSH2 0x26CF JUMP JUMPDEST SWAP1 POP PUSH2 0x2912 PUSH1 0x60 DUP4 ADD DUP7 PUSH2 0x1FE5 JUMP JUMPDEST PUSH2 0x291F PUSH1 0x80 DUP4 ADD DUP6 PUSH2 0x1FE5 JUMP JUMPDEST PUSH2 0x292C PUSH1 0xA0 DUP4 ADD DUP5 PUSH2 0x1FCC JUMP JUMPDEST SWAP8 SWAP7 POP POP POP POP POP POP POP JUMP JUMPDEST PUSH1 0x0 DUP2 SWAP1 POP SWAP3 SWAP2 POP POP JUMP JUMPDEST PUSH1 0x0 PUSH2 0x294D DUP3 PUSH2 0x2689 JUMP JUMPDEST PUSH2 0x2957 DUP2 DUP6 PUSH2 0x2937 JUMP JUMPDEST SWAP4 POP PUSH2 0x2967 DUP2 DUP6 PUSH1 0x20 DUP7 ADD PUSH2 0x26A5 JUMP JUMPDEST DUP1 DUP5 ADD SWAP2 POP POP SWAP3 SWAP2 POP POP JUMP JUMPDEST PUSH1 0x0 PUSH2 0x297F DUP3 DUP5 PUSH2 0x2942 JUMP JUMPDEST SWAP2 POP DUP2 SWAP1 POP SWAP3 SWAP2 POP POP JUMP JUMPDEST PUSH32 0x4E487B7100000000000000000000000000000000000000000000000000000000 PUSH1 0x0 MSTORE PUSH1 0x22 PUSH1 0x4 MSTORE PUSH1 0x24 PUSH1 0x0 REVERT JUMPDEST PUSH1 0x0 PUSH1 0x2 DUP3 DIV SWAP1 POP PUSH1 0x1 DUP3 AND DUP1 PUSH2 0x29D1 JUMPI PUSH1 0x7F DUP3 AND SWAP2 POP JUMPDEST PUSH1 0x20 DUP3 LT DUP2 SUB PUSH2 0x29E4 JUMPI PUSH2 0x29E3 PUSH2 0x298A JUMP JUMPDEST JUMPDEST POP SWAP2 SWAP1 POP JUMP JUMPDEST PUSH1 0x0 DUP2 SWAP1 POP DUP2 PUSH1 0x0 MSTORE PUSH1 0x20 PUSH1 0x0 KECCAK256 SWAP1 POP SWAP2 SWAP1 POP JUMP JUMPDEST PUSH1 0x0 PUSH1 0x20 PUSH1 0x1F DUP4 ADD DIV SWAP1 POP SWAP2 SWAP1 POP JUMP JUMPDEST PUSH1 0x0 DUP3 DUP3 SHL SWAP1 POP SWAP3 SWAP2 POP POP JUMP JUMPDEST PUSH1 0x0 PUSH1 0x8 DUP4 MUL PUSH2 0x2A4C PUSH32 0xFFFFFFFFFFFFFFFFFFFFFFFFFFFFFFFFFFFFFFFFFFFFFFFFFFFFFFFFFFFFFFFF DUP3 PUSH2 0x2A0F JUMP JUMPDEST PUSH2 0x2A56 DUP7 DUP4 PUSH2 0x2A0F JUMP JUMPDEST SWAP6 POP DUP1 NOT DUP5 AND SWAP4 POP DUP1 DUP7 AND DUP5 OR SWAP3 POP POP POP SWAP4 SWAP3 POP POP POP JUMP JUMPDEST PUSH1 0x0 DUP2 SWAP1 POP SWAP2 SWAP1 POP JUMP JUMPDEST PUSH1 0x0 PUSH2 0x2A93 PUSH2 0x2A8E PUSH2 0x2A89 DUP5 PUSH2 0x2171 JUMP JUMPDEST PUSH2 0x2A6E JUMP JUMPDEST PUSH2 0x2171 JUMP JUMPDEST SWAP1 POP SWAP2 SWAP1 POP JUMP JUMPDEST PUSH1 0x0 DUP2 SWAP1 POP SWAP2 SWAP1 POP JUMP JUMPDEST PUSH2 0x2AAD DUP4 PUSH2 0x2A78 JUMP JUMPDEST PUSH2 0x2AC1 PUSH2 0x2AB9 DUP3 PUSH2 0x2A9A JUMP JUMPDEST DUP5 DUP5 SLOAD PUSH2 0x2A1C JUMP JUMPDEST DUP3 SSTORE POP POP POP POP JUMP JUMPDEST PUSH1 0x0 SWAP1 JUMP JUMPDEST PUSH2 0x2AD6 PUSH2 0x2AC9 JUMP JUMPDEST PUSH2 0x2AE1 DUP2 DUP5 DUP5 PUSH2 0x2AA4 JUMP JUMPDEST POP POP POP JUMP JUMPDEST JUMPDEST DUP2 DUP2 LT ISZERO PUSH2 0x2B05 JUMPI PUSH2 0x2AFA PUSH1 0x0 DUP3 PUSH2 0x2ACE JUMP JUMPDEST PUSH1 0x1 DUP2 ADD SWAP1 POP PUSH2 0x2AE7 JUMP JUMPDEST POP POP JUMP JUMPDEST PUSH1 0x1F DUP3 GT ISZERO PUSH2 0x2B4A JUMPI PUSH2 0x2B1B DUP2 PUSH2 0x29EA JUMP JUMPDEST PUSH2 0x2B24 DUP5 PUSH2 0x29FF JUMP JUMPDEST DUP2 ADD PUSH1 0x20 DUP6 LT ISZERO PUSH2 0x2B33 JUMPI DUP2 SWAP1 POP JUMPDEST PUSH2 0x2B47 PUSH2 0x2B3F DUP6 PUSH2 0x29FF JUMP JUMPDEST DUP4 ADD DUP3 PUSH2 0x2AE6 JUMP JUMPDEST POP POP JUMPDEST POP POP POP JUMP JUMPDEST PUSH1 0x0 DUP3 DUP3 SHR SWAP1 POP SWAP3 SWAP2 POP POP JUMP JUMPDEST PUSH1 0x0 PUSH2 0x2B6D PUSH1 0x0 NOT DUP5 PUSH1 0x8 MUL PUSH2 0x2B4F JUMP JUMPDEST NOT DUP1 DUP4 AND SWAP2 POP POP SWAP3 SWAP2 POP POP JUMP JUMPDEST PUSH1 0x0 PUSH2 0x2B86 DUP4 DUP4 PUSH2 0x2B5C JUMP JUMPDEST SWAP2 POP DUP3 PUSH1 0x2 MUL DUP3 OR SWAP1 POP SWAP3 SWAP2 POP POP JUMP JUMPDEST PUSH2 0x2B9F DUP3 PUSH2 0x2689 JUMP JUMPDEST PUSH8 0xFFFFFFFFFFFFFFFF DUP2 GT ISZERO PUSH2 0x2BB8 JUMPI PUSH2 0x2BB7 PUSH2 0x2046 JUMP JUMPDEST JUMPDEST PUSH2 0x2BC2 DUP3 SLOAD PUSH2 0x29B9 JUMP JUMPDEST PUSH2 0x2BCD DUP3 DUP3 DUP6 PUSH2 0x2B09 JUMP JUMPDEST PUSH1 0x0 PUSH1 0x20 SWAP1 POP PUSH1 0x1F DUP4 GT PUSH1 0x1 DUP2 EQ PUSH2 0x2C00 JUMPI PUSH1 0x0 DUP5 ISZERO PUSH2 0x2BEE JUMPI DUP3 DUP8 ADD MLOAD SWAP1 POP JUMPDEST PUSH2 0x2BF8 DUP6 DUP3 PUSH2 0x2B7A JUMP JUMPDEST DUP7 SSTORE POP PUSH2 0x2C60 JUMP JUMPDEST PUSH1 0x1F NOT DUP5 AND PUSH2 0x2C0E DUP7 PUSH2 0x29EA JUMP JUMPDEST PUSH1 0x0 JUMPDEST DUP3 DUP2 LT ISZERO PUSH2 0x2C36 JUMPI DUP5 DUP10 ADD MLOAD DUP3 SSTORE PUSH1 0x1 DUP3 ADD SWAP2 POP PUSH1 0x20 DUP6 ADD SWAP5 POP PUSH1 0x20 DUP2 ADD SWAP1 POP PUSH2 0x2C11 JUMP JUMPDEST DUP7 DUP4 LT ISZERO PUSH2 0x2C53 JUMPI DUP5 DUP10 ADD MLOAD PUSH2 0x2C4F PUSH1 0x1F DUP10 AND DUP3 PUSH2 0x2B5C JUMP JUMPDEST DUP4 SSTORE POP JUMPDEST PUSH1 0x1 PUSH1 0x2 DUP9 MUL ADD DUP9 SSTORE POP POP POP JUMPDEST POP POP POP POP POP POP JUMP JUMPDEST PUSH32 0x4E487B7100000000000000000000000000000000000000000000000000000000 PUSH1 0x0 MSTORE PUSH1 0x11 PUSH1 0x4 MSTORE PUSH1 0x24 PUSH1 0x0 REVERT JUMPDEST PUSH1 0x0 PUSH2 0x2CA2 DUP3 PUSH2 0x2171 JUMP JUMPDEST SWAP2 POP PUSH32 0xFFFFFFFFFFFFFFFFFFFFFFFFFFFFFFFFFFFFFFFFFFFFFFFFFFFFFFFFFFFFFFFF DUP3 SUB PUSH2 0x2CD4 JUMPI PUSH2 0x2CD3 PUSH2 0x2C68 JUMP JUMPDEST JUMPDEST PUSH1 0x1 DUP3 ADD SWAP1 POP SWAP2 SWAP1 POP JUMP JUMPDEST PUSH1 0x0 PUSH1 0x60 DUP3 ADD SWAP1 POP PUSH2 0x2CF4 PUSH1 0x0 DUP4 ADD DUP7 PUSH2 0x2246 JUMP JUMPDEST PUSH2 0x2D01 PUSH1 0x20 DUP4 ADD DUP6 PUSH2 0x2246 JUMP JUMPDEST DUP2 DUP2 SUB PUSH1 0x40 DUP4 ADD MSTORE PUSH2 0x2D13 DUP2 DUP5 PUSH2 0x26CF JUMP JUMPDEST SWAP1 POP SWAP5 SWAP4 POP POP POP POP JUMP JUMPDEST PUSH32 0x4E487B7100000000000000000000000000000000000000000000000000000000 PUSH1 0x0 MSTORE PUSH1 0x32 PUSH1 0x4 MSTORE PUSH1 0x24 PUSH1 0x0 REVERT JUMPDEST PUSH1 0x0 DUP2 SWAP1 POP SWAP3 SWAP2 POP POP JUMP JUMPDEST PUSH1 0x0 DUP2 SWAP1 POP DUP2 PUSH1 0x0 MSTORE PUSH1 0x20 PUSH1 0x0 KECCAK256 SWAP1 POP SWAP2 SWAP1 POP JUMP JUMPDEST PUSH1 0x0 DUP2 SLOAD PUSH2 0x2D79 DUP2 PUSH2 0x29B9 JUMP JUMPDEST PUSH2 0x2D83 DUP2 DUP7 PUSH2 0x2D4C JUMP JUMPDEST SWAP5 POP PUSH1 0x1 DUP3 AND PUSH1 0x0 DUP2 EQ PUSH2 0x2D9E JUMPI PUSH1 0x1 DUP2 EQ PUSH2 0x2DB3 JUMPI PUSH2 0x2DE6 JUMP JUMPDEST PUSH1 0xFF NOT DUP4 AND DUP7 MSTORE DUP2 ISZERO ISZERO DUP3 MUL DUP7 ADD SWAP4 POP PUSH2 0x2DE6 JUMP JUMPDEST PUSH2 0x2DBC DUP6 PUSH2 0x2D57 JUMP JUMPDEST PUSH1 0x0 JUMPDEST DUP4 DUP2 LT ISZERO PUSH2 0x2DDE JUMPI DUP2 SLOAD DUP2 DUP10 ADD MSTORE PUSH1 0x1 DUP3 ADD SWAP2 POP PUSH1 0x20 DUP2 ADD SWAP1 POP PUSH2 0x2DBF JUMP JUMPDEST DUP4 DUP9 ADD SWAP6 POP POP POP JUMPDEST POP POP POP SWAP3 SWAP2 POP POP JUMP JUMPDEST PUSH1 0x0 PUSH2 0x2DFB DUP3 DUP5 PUSH2 0x2D6C JUMP JUMPDEST SWAP2 POP DUP2 SWAP1 POP SWAP3 SWAP2 POP POP JUMP JUMPDEST PUSH1 0x0 PUSH1 0x40 DUP3 ADD SWAP1 POP DUP2 DUP2 SUB PUSH1 0x0 DUP4 ADD MSTORE PUSH2 0x2E20 DUP2 DUP6 PUSH2 0x26CF JUMP JUMPDEST SWAP1 POP DUP2 DUP2 SUB PUSH1 0x20 DUP4 ADD MSTORE PUSH2 0x2E34 DUP2 DUP5 PUSH2 0x26CF JUMP JUMPDEST SWAP1 POP SWAP4 SWAP3 POP POP POP JUMP JUMPDEST PUSH32 0x4F72646572206E6F7420666F756E640000000000000000000000000000000000 PUSH1 0x0 DUP3 ADD MSTORE POP JUMP JUMPDEST PUSH1 0x0 PUSH2 0x2E73 PUSH1 0xF DUP4 PUSH2 0x2694 JUMP JUMPDEST SWAP2 POP PUSH2 0x2E7E DUP3 PUSH2 0x2E3D JUMP JUMPDEST PUSH1 0x20 DUP3 ADD SWAP1 POP SWAP2 SWAP1 POP JUMP JUMPDEST PUSH1 0x0 PUSH1 0x20 DUP3 ADD SWAP1 POP DUP2 DUP2 SUB PUSH1 0x0 DUP4 ADD MSTORE PUSH2 0x2EA2 DUP2 PUSH2 0x2E66 JUMP JUMPDEST SWAP1 POP SWAP2 SWAP1 POP JUMP JUMPDEST PUSH1 0x0 PUSH1 0x20 DUP3 ADD SWAP1 POP DUP2 DUP2 SUB PUSH1 0x0 DUP4 ADD MSTORE PUSH2 0x2EC3 DUP2 DUP5 PUSH2 0x26CF JUMP JUMPDEST SWAP1 POP SWAP3 SWAP2 POP POP JUMP JUMPDEST PUSH1 0x0 PUSH1 0x60 DUP3 ADD SWAP1 POP DUP2 DUP2 SUB PUSH1 0x0 DUP4 ADD MSTORE PUSH2 0x2EE5 DUP2 DUP7 PUSH2 0x26CF JUMP JUMPDEST SWAP1 POP DUP2 DUP2 SUB PUSH1 0x20 DUP4 ADD MSTORE PUSH2 0x2EF9 DUP2 DUP6 PUSH2 0x26CF JUMP JUMPDEST SWAP1 POP PUSH2 0x2F08 PUSH1 0x40 DUP4 ADD DUP5 PUSH2 0x1FCC JUMP JUMPDEST SWAP5 SWAP4 POP POP POP POP JUMP JUMPDEST PUSH1 0x0 PUSH2 0x2F1B DUP3 PUSH2 0x2171 JUMP JUMPDEST SWAP2 POP PUSH2 0x2F26 DUP4 PUSH2 0x2171 JUMP JUMPDEST SWAP3 POP DUP3 DUP3 ADD SWAP1 POP DUP1 DUP3 GT ISZERO PUSH2 0x2F3E JUMPI PUSH2 0x2F3D PUSH2 0x2C68 JUMP JUMPDEST JUMPDEST SWAP3 SWAP2 POP POP JUMP JUMPDEST PUSH32 0x4F52442D00000000000000000000000000000000000000000000000000000000 PUSH1 0x0 DUP3 ADD MSTORE POP JUMP JUMPDEST PUSH1 0x0 PUSH2 0x2F7A PUSH1 0x4 DUP4 PUSH2 0x2937 JUMP JUMPDEST SWAP2 POP PUSH2 0x2F85 DUP3 PUSH2 0x2F44 JUMP JUMPDEST PUSH1 0x4 DUP3 ADD SWAP1 POP SWAP2 SWAP1 POP JUMP JUMPDEST PUSH1 0x0 PUSH2 0x2F9B DUP3 PUSH2 0x2F6D JUMP JUMPDEST SWAP2 POP PUSH2 0x2FA7 DUP3 DUP5 PUSH2 0x2942 JUMP JUMPDEST SWAP2 POP DUP2 SWAP1 POP SWAP3 SWAP2 POP POP JUMP JUMPDEST PUSH1 0x0 PUSH1 0x60 DUP3 ADD SWAP1 POP DUP2 DUP2 SUB PUSH1 0x0 DUP4 ADD MSTORE PUSH2 0x2FCC DUP2 DUP7 PUSH2 0x26CF JUMP JUMPDEST SWAP1 POP DUP2 DUP2 SUB PUSH1 0x20 DUP4 ADD MSTORE PUSH2 0x2FE0 DUP2 DUP6 PUSH2 0x26CF JUMP JUMPDEST SWAP1 POP DUP2 DUP2 SUB PUSH1 0x40 DUP4 ADD MSTORE PUSH2 0x2FF4 DUP2 DUP5 PUSH2 0x26CF JUMP JUMPDEST SWAP1 POP SWAP5 SWAP4 POP POP POP POP JUMP JUMPDEST PUSH32 0x4F72646572206973206E6F742070656E64696E67000000000000000000000000 PUSH1 0x0 DUP3 ADD MSTORE POP JUMP JUMPDEST PUSH1 0x0 PUSH2 0x3034 PUSH1 0x14 DUP4 PUSH2 0x2694 JUMP JUMPDEST SWAP2 POP PUSH2 0x303F DUP3 PUSH2 0x2FFE JUMP JUMPDEST PUSH1 0x20 DUP3 ADD SWAP1 POP SWAP2 SWAP1 POP JUMP JUMPDEST PUSH1 0x0 PUSH1 0x20 DUP3 ADD SWAP1 POP DUP2 DUP2 SUB PUSH1 0x0 DUP4 ADD MSTORE PUSH2 0x3063 DUP2 PUSH2 0x3027 JUMP JUMPDEST SWAP1 POP SWAP2 SWAP1 POP JUMP JUMPDEST PUSH1 0x0 PUSH1 0x40 DUP3 ADD SWAP1 POP PUSH2 0x307F PUSH1 0x0 DUP4 ADD DUP6 PUSH2 0x2246 JUMP JUMPDEST PUSH2 0x308C PUSH1 0x20 DUP4 ADD DUP5 PUSH2 0x2246 JUMP JUMPDEST SWAP4 SWAP3 POP POP POP JUMP JUMPDEST PUSH1 0x0 PUSH1 0x60 DUP3 ADD SWAP1 POP PUSH2 0x30A8 PUSH1 0x0 DUP4 ADD DUP7 PUSH2 0x2246 JUMP JUMPDEST DUP2 DUP2 SUB PUSH1 0x20 DUP4 ADD MSTORE PUSH2 0x30BA DUP2 DUP6 PUSH2 0x26CF JUMP JUMPDEST SWAP1 POP PUSH2 0x30C9 PUSH1 0x40 DUP4 ADD DUP5 PUSH2 0x2246 JUMP JUMPDEST SWAP5 SWAP4 POP POP POP POP JUMP JUMPDEST PUSH32 0x4E487B7100000000000000000000000000000000000000000000000000000000 PUSH1 0x0 MSTORE PUSH1 0x12 PUSH1 0x4 MSTORE PUSH1 0x24 PUSH1 0x0 REVERT JUMPDEST PUSH1 0x0 PUSH2 0x310B DUP3 PUSH2 0x2171 JUMP JUMPDEST SWAP2 POP PUSH2 0x3116 DUP4 PUSH2 0x2171 JUMP JUMPDEST SWAP3 POP DUP3 PUSH2 0x3126 JUMPI PUSH2 0x3125 PUSH2 0x30D1 JUMP JUMPDEST JUMPDEST DUP3 DUP3 MOD SWAP1 POP SWAP3 SWAP2 POP POP JUMP JUMPDEST PUSH1 0x0 PUSH2 0x313C DUP3 PUSH2 0x2171 JUMP JUMPDEST SWAP2 POP PUSH2 0x3147 DUP4 PUSH2 0x2171 JUMP JUMPDEST SWAP3 POP DUP3 PUSH2 0x3157 JUMPI PUSH2 0x3156 PUSH2 0x30D1 JUMP JUMPDEST JUMPDEST DUP3 DUP3 DIV SWAP1 POP SWAP3 SWAP2 POP POP JUMP JUMPDEST PUSH1 0x0 PUSH2 0x316D DUP3 PUSH2 0x2171 JUMP JUMPDEST SWAP2 POP PUSH2 0x3178 DUP4 PUSH2 0x2171 JUMP JUMPDEST SWAP3 POP DUP3 DUP3 SUB SWAP1 POP DUP2 DUP2 GT ISZERO PUSH2 0x3190 JUMPI PUSH2 0x318F PUSH2 0x2C68 JUMP JUMPDEST JUMPDEST SWAP3 SWAP2 POP POP JUMP INVALID LOG2 PUSH5 0x6970667358 0x22 SLT KECCAK256 OR SWAP10 0xD8 0xD EQ JUMPDEST 0x21 0xD9 0xC4 NOT 0x1F 0xCC SLOAD DELEGATECALL 0xBF 0x22 SELFDESTRUCT 0xEB 0xB4 0xCF SWAP6 0x23 MSIZE GAS PREVRANDAO 0xC7 0x29 0xCD PUSH26 0x609D3D64736F6C63430008140033000000000000000000000000 "},"methodIdentifiers":{"acceptOrderRequest(string,uint256,uint256)":"7bb7ff6e","addPartner(string,string,string,int256,int256,address)":"5b51a770","carbonEmissions(string)":"aa088135","carbonEmissionsCount()":"139e67a2","completeShipment(string)":"4069d06f","createOrder(string,string,string)":"62e03f91","declineOrderRequest(string)":"88027081","delayPredictions(string)":"bdd2121d","delayPredictionsCount()":"72d5080b","getUserLocation(address)":"4a3a9d25","orders(uint256)":"a85c38ef","ordersCount()":"35daa731","partners(uint256)":"c3b49d04","partnersCount()":"cdd8fea5","recordCarbonEmission(string,uint256,uint256,string)":"126969df","recordDelayPrediction(string,uint256,string,uint256)":"9de29051","startShipment(string,string)":"30a93516","updateUserLocation(int256,int256)":"1e8f46d9","userLocations(address)":"10f41ddf"}}}}}