{
  "_format": "hh-sol-artifact-1",
  "contractName": "SupplyChain",
  "sourceName": "contracts/SupplyChain.sol",
  "abi": [
    {
      "anonymous": false,
      "inputs": [
        {
          "indexed": true,
          "internalType": "string",
          "name": "orderId",
          "type": "string"
        },
        {
          "indexed": false,
          "internalType": "uint256",
          "name": "emissions",
          "type": "uint256"
        },
        {
          "indexed": false,
          "internalType": "uint256",
          "name": "distance",
          "type": "uint256"
        },
        {
          "indexed": false,
          "internalType": "string",
          "name": "transportType",
          "type": "string"
        }
      ],
      "name": "CarbonEmitted",
      "type": "event"
    },
    {
      "anonymous": false,
      "inputs": [
        {
          "indexed": true,
          "internalType": "string",
          "name": "orderId",
          "type": "string"
        },
        {
          "indexed": false,
          "internalType": "uint256",
          "name": "probability",
          "type": "uint256"
        },
        {
          "indexed": false,
          "internalType": "string",
          "name": "reason",
          "type": "string"
        },
        {
          "indexed": false,
          "internalType": "uint256",
          "name": "estimatedDelay",
          "type": "uint256"
        }
      ],
      "name": "DelayPredicted",
      "type": "event"
    },
    {
      "anonymous": false,
      "inputs": [
        {
          "indexed": true,
          "internalType": "string",
          "name": "orderId",
          "type": "string"
        },
        {
          "indexed": true,
          "internalType": "address",
          "name": "approvedBy",
          "type": "address"
        },
        {
          "indexed": false,
          "internalType": "uint256",
          "name": "price",
          "type": "uint256"
        },
        {
          "indexed": false,
          "internalType": "uint256",
          "name": "deliveryDate",
          "type": "uint256"
        }
      ],
      "name": "OrderApproved",
      "type": "event"
    },
    {
      "anonymous": false,
      "inputs": [
        {
          "indexed": false,
          "internalType": "string",
          "name": "orderId",
          "type": "string"
        },
        {
          "indexed": false,
          "internalType": "string",
          "name": "supplierId",
          "type": "string"
        },
        {
          "indexed": false,
          "internalType": "string",
          "name": "productId",
          "type": "string"
        }
      ],
      "name": "OrderCreated",
      "type": "event"
    },
    {
      "anonymous": false,
      "inputs": [
        {
          "indexed": true,
          "internalType": "string",
          "name": "orderId",
          "type": "string"
        },
        {
          "indexed": true,
          "internalType": "address",
          "name": "declinedBy",
          "type": "address"
        }
      ],
      "name": "OrderDeclined",
      "type": "event"
    },
    {
      "anonymous": false,
      "inputs": [
        {
          "indexed": false,
          "internalType": "string",
          "name": "partnerId",
          "type": "string"
        },
        {
          "indexed": false,
          "internalType": "string",
          "name": "name",
          "type": "string"
        },
        {
          "indexed": false,
          "internalType": "address",
          "name": "walletAddress",
          "type": "address"
        }
      ],
      "name": "PartnerAdded",
      "type": "event"
    },
    {
      "anonymous": false,
      "inputs": [
        {
          "indexed": false,
          "internalType": "string",
          "name": "orderId",
          "type": "string"
        }
      ],
      "name": "ShipmentCompleted",
      "type": "event"
    },
    {
      "anonymous": false,
      "inputs": [
        {
          "indexed": false,
          "internalType": "string",
          "name": "orderId",
          "type": "string"
        },
        {
          "indexed": false,
          "internalType": "string",
          "name": "carrierId",
          "type": "string"
        }
      ],
      "name": "ShipmentStarted",
      "type": "event"
    },
    {
      "anonymous": false,
      "inputs": [
        {
          "indexed": true,
          "internalType": "address",
          "name": "user",
          "type": "address"
        },
        {
          "indexed": false,
          "internalType": "int256",
          "name": "lat",
          "type": "int256"
        },
        {
          "indexed": false,
          "internalType": "int256",
          "name": "lng",
          "type": "int256"
        }
      ],
      "name": "UserLocationUpdated",
      "type": "event"
    },
    {
      "inputs": [
        {
          "internalType": "string",
          "name": "orderId",
          "type": "string"
        },
        {
          "internalType": "uint256",
          "name": "price",
          "type": "uint256"
        },
        {
          "internalType": "uint256",
          "name": "deliveryDate",
          "type": "uint256"
        }
      ],
      "name": "acceptOrderRequest",
      "outputs": [],
      "stateMutability": "nonpayable",
      "type": "function"
    },
    {
      "inputs": [
        {
          "internalType": "string",
          "name": "id",
          "type": "string"
        },
        {
          "internalType": "string",
          "name": "name",
          "type": "string"
        },
        {
          "internalType": "string",
          "name": "partnerType",
          "type": "string"
        },
        {
          "internalType": "int256",
          "name": "lat",
          "type": "int256"
        },
        {
          "internalType": "int256",
          "name": "lng",
          "type": "int256"
        },
        {
          "internalType": "address",
          "name": "walletAddress",
          "type": "address"
        }
      ],
      "name": "addPartner",
      "outputs": [],
      "stateMutability": "nonpayable",
      "type": "function"
    },
    {
      "inputs": [
        {
          "internalType": "string",
          "name": "",
          "type": "string"
        }
      ],
      "name": "carbonEmissions",
      "outputs": [
        {
          "internalType": "string",
          "name": "orderId",
          "type": "string"
        },
        {
          "internalType": "uint256",
          "name": "timestamp",
          "type": "uint256"
        },
        {
          "internalType": "uint256",
          "name": "emissions",
          "type": "uint256"
        },
        {
          "internalType": "uint256",
          "name": "distance",
          "type": "uint256"
        },
        {
          "internalType": "string",
          "name": "transportType",
          "type": "string"
        }
      ],
      "stateMutability": "view",
      "type": "function"
    },
    {
      "inputs": [],
      "name": "carbonEmissionsCount",
      "outputs": [
        {
          "internalType": "uint256",
          "name": "",
          "type": "uint256"
        }
      ],
      "stateMutability": "view",
      "type": "function"
    },
    {
      "inputs": [
        {
          "internalType": "string",
          "name": "orderId",
          "type": "string"
        }
      ],
      "name": "completeShipment",
      "outputs": [],
      "stateMutability": "payable",
      "type": "function"
    },
    {
      "inputs": [
        {
          "internalType": "string",
          "name": "supplierId",
          "type": "string"
        },
        {
          "internalType": "string",
          "name": "productId",
          "type": "string"
        },
        {
          "internalType": "string",
          "name": "transportType",
          "type": "string"
        }
      ],
      "name": "createOrder",
      "outputs": [],
      "stateMutability": "nonpayable",
      "type": "function"
    },
    {
      "inputs": [
        {
          "internalType": "string",
          "name": "orderId",
          "type": "string"
        }
      ],
      "name": "declineOrderRequest",
      "outputs": [],
      "stateMutability": "nonpayable",
      "type": "function"
    },
    {
      "inputs": [
        {
          "internalType": "string",
          "name": "",
          "type": "string"
        }
      ],
      "name": "delayPredictions",
      "outputs": [
        {
          "internalType": "string",
          "name": "orderId",
          "type": "string"
        },
        {
          "internalType": "uint256",
          "name": "timestamp",
          "type": "uint256"
        },
        {
          "internalType": "uint256",
          "name": "probability",
          "type": "uint256"
        },
        {
          "internalType": "string",
          "name": "reason",
          "type": "string"
        },
        {
          "internalType": "uint256",
          "name": "estimatedDelay",
          "type": "uint256"
        }
      ],
      "stateMutability": "view",
      "type": "function"
    },
    {
      "inputs": [],
      "name": "delayPredictionsCount",
      "outputs": [
        {
          "internalType": "uint256",
          "name": "",
          "type": "uint256"
        }
      ],
      "stateMutability": "view",
      "type": "function"
    },
    {
      "inputs": [
        {
          "internalType": "address",
          "name": "user",
          "type": "address"
        }
      ],
      "name": "getUserLocation",
      "outputs": [
        {
          "internalType": "int256",
          "name": "lat",
          "type": "int256"
        },
        {
          "internalType": "int256",
          "name": "lng",
          "type": "int256"
        }
      ],
      "stateMutability": "view",
      "type": "function"
    },
    {
      "inputs": [
        {
          "internalType": "uint256",
          "name": "",
          "type": "uint256"
        }
      ],
      "name": "orders",
      "outputs": [
        {
          "internalType": "string",
          "name": "id",
          "type": "string"
        },
        {
          "internalType": "string",
          "name": "supplierId",
          "type": "string"
        },
        {
          "internalType": "string",
          "name": "productId",
          "type": "string"
        },
        {
          "internalType": "uint256",
          "name": "orderDate",
          "type": "uint256"
        },
        {
          "internalType": "uint256",
          "name": "deliveryDate",
          "type": "uint256"
        },
        {
          "internalType": "uint256",
          "name": "price",
          "type": "uint256"
        },
        {
          "internalType": "bool",
          "name": "isPaid",
          "type": "bool"
        },
        {
          "internalType": "string",
          "name": "shipmentStatus",
          "type": "string"
        },
        {
          "internalType": "string",
          "name": "requestStatus",
          "type": "string"
        },
        {
          "internalType": "string",
          "name": "carrierId",
          "type": "string"
        },
        {
          "internalType": "string",
          "name": "transportType",
          "type": "string"
        }
      ],
      "stateMutability": "view",
      "type": "function"
    },
    {
      "inputs": [],
      "name": "ordersCount",
      "outputs": [
        {
          "internalType": "uint256",
          "name": "",
          "type": "uint256"
        }
      ],
      "stateMutability": "view",
      "type": "function"
    },
    {
      "inputs": [
        {
          "internalType": "uint256",
          "name": "",
          "type": "uint256"
        }
      ],
      "name": "partners",
      "outputs": [
        {
          "internalType": "string",
          "name": "id",
          "type": "string"
        },
        {
          "internalType": "string",
          "name": "name",
          "type": "string"
        },
        {
          "internalType": "string",
          "name": "partnerType",
          "type": "string"
        },
        {
          "internalType": "int256",
          "name": "lat",
          "type": "int256"
        },
        {
          "internalType": "int256",
          "name": "lng",
          "type": "int256"
        },
        {
          "internalType": "address",
          "name": "walletAddress",
          "type": "address"
        }
      ],
      "stateMutability": "view",
      "type": "function"
    },
    {
      "inputs": [],
      "name": "partnersCount",
      "outputs": [
        {
          "internalType": "uint256",
          "name": "",
          "type": "uint256"
        }
      ],
      "stateMutability": "view",
      "type": "function"
    },
    {
      "inputs": [
        {
          "internalType": "string",
          "name": "orderId",
          "type": "string"
        },
        {
          "internalType": "uint256",
          "name": "emissions",
          "type": "uint256"
        },
        {
          "internalType": "uint256",
          "name": "distance",
          "type": "uint256"
        },
        {
          "internalType": "string",
          "name": "transportType",
          "type": "string"
        }
      ],
      "name": "recordCarbonEmission",
      "outputs": [],
      "stateMutability": "nonpayable",
      "type": "function"
    },
    {
      "inputs": [
        {
          "internalType": "string",
          "name": "orderId",
          "type": "string"
        },
        {
          "internalType": "uint256",
          "name": "probability",
          "type": "uint256"
        },
        {
          "internalType": "string",
          "name": "reason",
          "type": "string"
        },
        {
          "internalType": "uint256",
          "name": "estimatedDelay",
          "type": "uint256"
        }
      ],
      "name": "recordDelayPrediction",
      "outputs": [],
      "stateMutability": "nonpayable",
      "type": "function"
    },
    {
      "inputs": [
        {
          "internalType": "string",
          "name": "orderId",
          "type": "string"
        },
        {
          "internalType": "string",
          "name": "carrierId",
          "type": "string"
        }
      ],
      "name": "startShipment",
      "outputs": [],
      "stateMutability": "nonpayable",
      "type": "function"
    },
    {
      "inputs": [
        {
          "internalType": "int256",
          "name": "lat",
          "type": "int256"
        },
        {
          "internalType": "int256",
          "name": "lng",
          "type": "int256"
        }
      ],
      "name": "updateUserLocation",
      "outputs": [],
      "stateMutability": "nonpayable",
      "type": "function"
    },
    {
      "inputs": [
        {
          "internalType": "address",
          "name": "",
          "type": "address"
        }
      ],
      "name": "userLocations",
      "outputs": [
        {
          "internalType": "address",
          "name": "userAddress",
          "type": "address"
        },
        {
          "internalType": "int256",
          "name": "lat",
          "type": "int256"
        },
        {
          "internalType": "int256",
          "name": "lng",
          "type": "int256"
        }
      ],
      "stateMutability": "view",
      "type": "function"
    }
  ],
  "bytecode": "0x608060405234801561001057600080fd5b506131cc806100206000396000f3fe6080604052600436106101145760003560e01c806362e03f91116100a0578063a85c38ef11610064578063a85c38ef1461037b578063aa088135146103c2578063bdd2121d14610403578063c3b49d0414610444578063cdd8fea51461048657610114565b806362e03f91146102ac57806372d5080b146102d55780637bb7ff6e1461030057806388027081146103295780639de290511461035257610114565b806330a93516116100e757806330a93516146101d557806335daa731146101fe5780634069d06f146102295780634a3a9d25146102455780635b51a7701461028357610114565b806310f41ddf14610119578063126969df14610158578063139e67a2146101815780631e8f46d9146101ac575b600080fd5b34801561012557600080fd5b50610140600480360381019061013b9190611f9f565b6104b1565b60405161014f93929190611ff4565b60405180910390f35b34801561016457600080fd5b5061017f600480360381019061017a91906121a7565b6104fb565b005b34801561018d57600080fd5b506101966105fc565b6040516101a39190612255565b60405180910390f35b3480156101b857600080fd5b506101d360048036038101906101ce919061229c565b610602565b005b3480156101e157600080fd5b506101fc60048036038101906101f791906122dc565b610724565b005b34801561020a57600080fd5b506102136108a8565b6040516102209190612255565b60405180910390f35b610243600480360381019061023e9190612354565b6108ae565b005b34801561025157600080fd5b5061026c60048036038101906102679190611f9f565b610a3a565b60405161027a92919061239d565b60405180910390f35b34801561028f57600080fd5b506102aa60048036038101906102a591906123c6565b610a94565b005b3480156102b857600080fd5b506102d360048036038101906102ce91906124a7565b610bfb565b005b3480156102e157600080fd5b506102ea610e63565b6040516102f79190612255565b60405180910390f35b34801561030c57600080fd5b506103276004803603810190610322919061254e565b610e69565b005b34801561033557600080fd5b50610350600480360381019061034b9190612354565b6110f3565b005b34801561035e57600080fd5b50610379600480360381019061037491906125bd565b61131a565b005b34801561038757600080fd5b506103a2600480360381019061039d919061265c565b61141b565b6040516103b99b9a99989796959493929190612723565b60405180910390f35b3480156103ce57600080fd5b506103e960048036038101906103e49190612354565b61184a565b6040516103fa9594939291906127ff565b60405180910390f35b34801561040f57600080fd5b5061042a60048036038101906104259190612354565b6119a6565b60405161043b959493929190612860565b60405180910390f35b34801561045057600080fd5b5061046b6004803603810190610466919061265c565b611b02565b60405161047d969594939291906128c1565b60405180910390f35b34801561049257600080fd5b5061049b611d06565b6040516104a89190612255565b60405180910390f35b60066020528060005260406000206000915090508060000160009054906101000a900473ffffffffffffffffffffffffffffffffffffffff16908060010154908060020154905083565b6040518060a00160405280858152602001428152602001848152602001838152602001828152506004856040516105329190612973565b908152602001604051809103902060008201518160000190816105559190612b96565b5060208201518160010155604082015181600201556060820151816003015560808201518160040190816105899190612b96565b50905050600560008154809291906105a090612c97565b9190505550836040516105b39190612973565b60405180910390207fda91ca404f3f8799fd57efacb71a91f1f917a738b9bdb151da1516ded0ff561c8484846040516105ee93929190612cdf565b60405180910390a250505050565b60055481565b60405180606001604052803373ffffffffffffffffffffffffffffffffffffffff16815260200183815260200182815250600660003373ffffffffffffffffffffffffffffffffffffffff1673ffffffffffffffffffffffffffffffffffffffff16815260200190815260200160002060008201518160000160006101000a81548173ffffffffffffffffffffffffffffffffffffffff021916908373ffffffffffffffffffffffffffffffffffffffff16021790555060208201518160010155604082015181600201559050503373ffffffffffffffffffffffffffffffffffffffff167f10ecdd796c2ed5f78151f7f44257a43d5735f73c03e24c4f41747f89fcd14068838360405161071892919061239d565b60405180910390a25050565b60005b600380549050811015610868578280519060200120600382815481106107505761074f612d1d565b5b90600052602060002090600b020160000160405161076e9190612def565b604051809103902003610855576040518060400160405280600a81526020017f496e205472616e73697400000000000000000000000000000000000000000000815250600382815481106107c5576107c4612d1d565b5b90600052602060002090600b020160070190816107e29190612b96565b5081600382815481106107f8576107f7612d1d565b5b90600052602060002090600b020160090190816108159190612b96565b507fa647fdae905df85901f9c97aaad099b6f5cdb392d26594d30e916acb4b86f77c8383604051610847929190612e06565b60405180910390a1506108a4565b808061086090612c97565b915050610727565b506040517f08c379a000000000000000000000000000000000000000000000000000000000815260040161089b90612e89565b60405180910390fd5b5050565b60015481565b60005b6003805490508110156109fb578180519060200120600382815481106108da576108d9612d1d565b5b90600052602060002090600b02016000016040516108f89190612def565b6040518091039020036109e8576040518060400160405280600981526020017f44656c69766572656400000000000000000000000000000000000000000000008152506003828154811061094f5761094e612d1d565b5b90600052602060002090600b0201600701908161096c9190612b96565b5060016003828154811061098357610982612d1d565b5b90600052602060002090600b020160060160006101000a81548160ff0219169083151502179055507ffe45e082e373e0cd30323fef887858a53d293db708ced005856b63f9024345ee826040516109da9190612ea9565b60405180910390a150610a37565b80806109f390612c97565b9150506108b1565b506040517f08c379a0000000000000000000000000000000000000000000000000000000008152600401610a2e90612e89565b60405180910390fd5b50565b6000806000600660008573ffffffffffffffffffffffffffffffffffffffff1673ffffffffffffffffffffffffffffffffffffffff1681526020019081526020016000209050806001015481600201549250925050915091565b60026040518060c001604052808881526020018781526020018681526020018581526020018481526020018373ffffffffffffffffffffffffffffffffffffffff1681525090806001815401808255809150506001900390600052602060002090600602016000909190919091506000820151816000019081610b179190612b96565b506020820151816001019081610b2d9190612b96565b506040820151816002019081610b439190612b96565b50606082015181600301556080820151816004015560a08201518160050160006101000a81548173ffffffffffffffffffffffffffffffffffffffff021916908373ffffffffffffffffffffffffffffffffffffffff1602179055505050600080815480929190610bb390612c97565b91905055507f28d5b2fd31c60b27a4052ca943e1e78299875807289bf4dddd5c373aa2b0426b868683604051610beb93929190612ecb565b60405180910390a1505050505050565b6000610c176001600380549050610c129190612f10565b611d0c565b604051602001610c279190612f90565b6040516020818303038152906040529050600360405180610160016040528083815260200186815260200185815260200142815260200160008152602001600081526020016000151581526020016040518060400160405280600781526020017f50656e64696e670000000000000000000000000000000000000000000000000081525081526020016040518060400160405280600781526020017f50656e64696e670000000000000000000000000000000000000000000000000081525081526020016040518060200160405280600081525081526020018481525090806001815401808255809150506001900390600052602060002090600b02016000909190919091506000820151816000019081610d429190612b96565b506020820151816001019081610d589190612b96565b506040820151816002019081610d6e9190612b96565b50606082015181600301556080820151816004015560a0820151816005015560c08201518160060160006101000a81548160ff02191690831515021790555060e0820151816007019081610dc29190612b96565b50610100820151816008019081610dd99190612b96565b50610120820151816009019081610df09190612b96565b5061014082015181600a019081610e079190612b96565b50505060016000815480929190610e1d90612c97565b91905055507f8849a69cae32e2cee951cbe777bb31142fb780f1177465095b1418334a28c826818585604051610e5593929190612fb2565b60405180910390a150505050565b60085481565b60005b6003805490508110156110b257838051906020012060038281548110610e9557610e94612d1d565b5b90600052602060002090600b0201600001604051610eb39190612def565b60405180910390200361109f576040518060400160405280600781526020017f50656e64696e67000000000000000000000000000000000000000000000000008152508051906020012060038281548110610f1157610f10612d1d565b5b90600052602060002090600b0201600801604051610f2f9190612def565b604051809103902014610f77576040517f08c379a0000000000000000000000000000000000000000000000000000000008152600401610f6e9061304a565b60405180910390fd5b8260038281548110610f8c57610f8b612d1d565b5b90600052602060002090600b0201600501819055508160038281548110610fb657610fb5612d1d565b5b90600052602060002090600b0201600401819055506040518060400160405280600881526020017f417070726f7665640000000000000000000000000000000000000000000000008152506003828154811061101557611014612d1d565b5b90600052602060002090600b020160080190816110329190612b96565b503373ffffffffffffffffffffffffffffffffffffffff16846040516110589190612973565b60405180910390207fa960ffa51e319532722a62e005c77208bbf7ad09a24eaedfbf5c8fe37271335e858560405161109192919061306a565b60405180910390a3506110ee565b80806110aa90612c97565b915050610e6c565b506040517f08c379a00000000000000000000000000000000000000000000000000000000081526004016110e590612e89565b60405180910390fd5b505050565b60005b6003805490508110156112db5781805190602001206003828154811061111f5761111e612d1d565b5b90600052602060002090600b020160000160405161113d9190612def565b6040518091039020036112c8576040518060400160405280600781526020017f50656e64696e6700000000000000000000000000000000000000000000000000815250805190602001206003828154811061119b5761119a612d1d565b5b90600052602060002090600b02016008016040516111b99190612def565b604051809103902014611201576040517f08c379a00000000000000000000000000000000000000000000000000000000081526004016111f89061304a565b60405180910390fd5b6040518060400160405280600881526020017f4465636c696e65640000000000000000000000000000000000000000000000008152506003828154811061124b5761124a612d1d565b5b90600052602060002090600b020160080190816112689190612b96565b503373ffffffffffffffffffffffffffffffffffffffff168260405161128e9190612973565b60405180910390207f8c721bb27a7aaece78aee375ce1d1dd252ec3ea2b8e37d4a2edb5873726872a760405160405180910390a350611317565b80806112d390612c97565b9150506110f6565b506040517f08c379a000000000000000000000000000000000000000000000000000000000815260040161130e90612e89565b60405180910390fd5b50565b6040518060a00160405280858152602001428152602001848152602001838152602001828152506007856040516113519190612973565b908152602001604051809103902060008201518160000190816113749190612b96565b506020820151816001015560408201518160020155606082015181600301908161139e9190612b96565b5060808201518160040155905050600860008154809291906113bf90612c97565b9190505550836040516113d29190612973565b60405180910390207ffeff67426e3772fd3fbe509c3ad110eaf857081e22844755c939f6d1d8dac4b084848460405161140d93929190613093565b60405180910390a250505050565b6003818154811061142b57600080fd5b90600052602060002090600b020160009150905080600001805461144e906129b9565b80601f016020809104026020016040519081016040528092919081815260200182805461147a906129b9565b80156114c75780601f1061149c576101008083540402835291602001916114c7565b820191906000526020600020905b8154815290600101906020018083116114aa57829003601f168201915b5050505050908060010180546114dc906129b9565b80601f0160208091040260200160405190810160405280929190818152602001828054611508906129b9565b80156115555780601f1061152a57610100808354040283529160200191611555565b820191906000526020600020905b81548152906001019060200180831161153857829003601f168201915b50505050509080600201805461156a906129b9565b80601f0160208091040260200160405190810160405280929190818152602001828054611596906129b9565b80156115e35780601f106115b8576101008083540402835291602001916115e3565b820191906000526020600020905b8154815290600101906020018083116115c657829003601f168201915b5050505050908060030154908060040154908060050154908060060160009054906101000a900460ff169080600701805461161d906129b9565b80601f0160208091040260200160405190810160405280929190818152602001828054611649906129b9565b80156116965780601f1061166b57610100808354040283529160200191611696565b820191906000526020600020905b81548152906001019060200180831161167957829003601f168201915b5050505050908060080180546116ab906129b9565b80601f01602080910402602001604051908101604052809291908181526020018280546116d7906129b9565b80156117245780601f106116f957610100808354040283529160200191611724565b820191906000526020600020905b81548152906001019060200180831161170757829003601f168201915b505050505090806009018054611739906129b9565b80601f0160208091040260200160405190810160405280929190818152602001828054611765906129b9565b80156117b25780601f10611787576101008083540402835291602001916117b2565b820191906000526020600020905b81548152906001019060200180831161179557829003601f168201915b50505050509080600a0180546117c7906129b9565b80601f01602080910402602001604051908101604052809291908181526020018280546117f3906129b9565b80156118405780601f1061181557610100808354040283529160200191611840565b820191906000526020600020905b81548152906001019060200180831161182357829003601f168201915b505050505090508b565b600481805160208101820180518482526020830160208501208183528095505050505050600091509050806000018054611883906129b9565b80601f01602080910402602001604051908101604052809291908181526020018280546118af906129b9565b80156118fc5780601f106118d1576101008083540402835291602001916118fc565b820191906000526020600020905b8154815290600101906020018083116118df57829003601f168201915b505050505090806001015490806002015490806003015490806004018054611923906129b9565b80601f016020809104026020016040519081016040528092919081815260200182805461194f906129b9565b801561199c5780601f106119715761010080835404028352916020019161199c565b820191906000526020600020905b81548152906001019060200180831161197f57829003601f168201915b5050505050905085565b6007818051602081018201805184825260208301602085012081835280955050505050506000915090508060000180546119df906129b9565b80601f0160208091040260200160405190810160405280929190818152602001828054611a0b906129b9565b8015611a585780601f10611a2d57610100808354040283529160200191611a58565b820191906000526020600020905b815481529060010190602001808311611a3b57829003601f168201915b505050505090806001015490806002015490806003018054611a79906129b9565b80601f0160208091040260200160405190810160405280929190818152602001828054611aa5906129b9565b8015611af25780601f10611ac757610100808354040283529160200191611af2565b820191906000526020600020905b815481529060010190602001808311611ad557829003601f168201915b5050505050908060040154905085565b60028181548110611b1257600080fd5b9060005260206000209060060201600091509050806000018054611b35906129b9565b80601f0160208091040260200160405190810160405280929190818152602001828054611b61906129b9565b8015611bae5780601f10611b8357610100808354040283529160200191611bae565b820191906000526020600020905b815481529060010190602001808311611b9157829003601f168201915b505050505090806001018054611bc3906129b9565b80601f0160208091040260200160405190810160405280929190818152602001828054611bef906129b9565b8015611c3c5780601f10611c1157610100808354040283529160200191611c3c565b820191906000526020600020905b815481529060010190602001808311611c1f57829003601f168201915b505050505090806002018054611c51906129b9565b80601f0160208091040260200160405190810160405280929190818152602001828054611c7d906129b9565b8015611cca5780601f10611c9f57610100808354040283529160200191611cca565b820191906000526020600020905b815481529060010190602001808311611cad57829003601f168201915b5050505050908060030154908060040154908060050160009054906101000a900473ffffffffffffffffffffffffffffffffffffffff16905086565b60005481565b606060008203611d53576040518060400160405280600181526020017f30000000000000000000000000000000000000000000000000000000000000008152509050611f28565b60006064905060008167ffffffffffffffff811115611d7557611d74612046565b5b6040519080825280601f01601f191660200182016040528015611da75781602001600182028036833780820191505090505b50905060005b60008514611e39576000600a86611dc49190613100565b9050600a86611dd39190613131565b9550806030611de29190612f10565b60f81b838380611df190612c97565b945081518110611e0457611e03612d1d565b5b60200101907effffffffffffffffffffffffffffffffffffffffffffffffffffffffffffff1916908160001a90535050611dad565b60008167ffffffffffffffff811115611e5557611e54612046565b5b6040519080825280601f01601f191660200182016040528015611e875781602001600182028036833780820191505090505b50905060005b82811015611f1f578381600185611ea49190613162565b611eae9190613162565b81518110611ebf57611ebe612d1d565b5b602001015160f81c60f81b828281518110611edd57611edc612d1d565b5b60200101907effffffffffffffffffffffffffffffffffffffffffffffffffffffffffffff1916908160001a9053508080611f1790612c97565b915050611e8d565b50809450505050505b919050565b6000604051905090565b600080fd5b600080fd5b600073ffffffffffffffffffffffffffffffffffffffff82169050919050565b6000611f6c82611f41565b9050919050565b611f7c81611f61565b8114611f8757600080fd5b50565b600081359050611f9981611f73565b92915050565b600060208284031215611fb557611fb4611f37565b5b6000611fc384828501611f8a565b91505092915050565b611fd581611f61565b82525050565b6000819050919050565b611fee81611fdb565b82525050565b60006060820190506120096000830186611fcc565b6120166020830185611fe5565b6120236040830184611fe5565b949350505050565b600080fd5b600080fd5b6000601f19601f8301169050919050565b7f4e487b7100000000000000000000000000000000000000000000000000000000600052604160045260246000fd5b61207e82612035565b810181811067ffffffffffffffff8211171561209d5761209c612046565b5b80604052505050565b60006120b0611f2d565b90506120bc8282612075565b919050565b600067ffffffffffffffff8211156120dc576120db612046565b5b6120e582612035565b9050602081019050919050565b82818337600083830152505050565b600061211461210f846120c1565b6120a6565b9050828152602081018484840111156121305761212f612030565b5b61213b8482856120f2565b509392505050565b600082601f8301126121585761215761202b565b5b8135612168848260208601612101565b91505092915050565b6000819050919050565b61218481612171565b811461218f57600080fd5b50565b6000813590506121a18161217b565b92915050565b600080600080608085870312156121c1576121c0611f37565b5b600085013567ffffffffffffffff8111156121df576121de611f3c565b5b6121eb87828801612143565b94505060206121fc87828801612192565b935050604061220d87828801612192565b925050606085013567ffffffffffffffff81111561222e5761222d611f3c565b5b61223a87828801612143565b91505092959194509250565b61224f81612171565b82525050565b600060208201905061226a6000830184612246565b92915050565b61227981611fdb565b811461228457600080fd5b50565b60008135905061229681612270565b92915050565b600080604083850312156122b3576122b2611f37565b5b60006122c185828601612287565b92505060206122d285828601612287565b9150509250929050565b600080604083850312156122f3576122f2611f37565b5b600083013567ffffffffffffffff81111561231157612310611f3c565b5b61231d85828601612143565b925050602083013567ffffffffffffffff81111561233e5761233d611f3c565b5b61234a85828601612143565b9150509250929050565b60006020828403121561236a57612369611f37565b5b600082013567ffffffffffffffff81111561238857612387611f3c565b5b61239484828501612143565b91505092915050565b60006040820190506123b26000830185611fe5565b6123bf6020830184611fe5565b9392505050565b60008060008060008060c087890312156123e3576123e2611f37565b5b600087013567ffffffffffffffff81111561240157612400611f3c565b5b61240d89828a01612143565b965050602087013567ffffffffffffffff81111561242e5761242d611f3c565b5b61243a89828a01612143565b955050604087013567ffffffffffffffff81111561245b5761245a611f3c565b5b61246789828a01612143565b945050606061247889828a01612287565b935050608061248989828a01612287565b92505060a061249a89828a01611f8a565b9150509295509295509295565b6000806000606084860312156124c0576124bf611f37565b5b600084013567ffffffffffffffff8111156124de576124dd611f3c565b5b6124ea86828701612143565b935050602084013567ffffffffffffffff81111561250b5761250a611f3c565b5b61251786828701612143565b925050604084013567ffffffffffffffff81111561253857612537611f3c565b5b61254486828701612143565b9150509250925092565b60008060006060848603121561256757612566611f37565b5b600084013567ffffffffffffffff81111561258557612584611f3c565b5b61259186828701612143565b93505060206125a286828701612192565b92505060406125b386828701612192565b9150509250925092565b600080600080608085870312156125d7576125d6611f37565b5b600085013567ffffffffffffffff8111156125f5576125f4611f3c565b5b61260187828801612143565b945050602061261287828801612192565b935050604085013567ffffffffffffffff81111561263357612632611f3c565b5b61263f87828801612143565b925050606061265087828801612192565b91505092959194509250565b60006020828403121561267257612671611f37565b5b600061268084828501612192565b91505092915050565b600081519050919050565b600082825260208201905092915050565b60005b838110156126c35780820151818401526020810190506126a8565b60008484015250505050565b60006126da82612689565b6126e48185612694565b93506126f48185602086016126a5565b6126fd81612035565b840191505092915050565b60008115159050919050565b61271d81612708565b82525050565b600061016082019050818103600083015261273e818e6126cf565b90508181036020830152612752818d6126cf565b90508181036040830152612766818c6126cf565b9050612775606083018b612246565b612782608083018a612246565b61278f60a0830189612246565b61279c60c0830188612714565b81810360e08301526127ae81876126cf565b90508181036101008301526127c381866126cf565b90508181036101208301526127d881856126cf565b90508181036101408301526127ed81846126cf565b90509c9b505050505050505050505050565b600060a082019050818103600083015261281981886126cf565b90506128286020830187612246565b6128356040830186612246565b6128426060830185612246565b818103608083015261285481846126cf565b90509695505050505050565b600060a082019050818103600083015261287a81886126cf565b90506128896020830187612246565b6128966040830186612246565b81810360608301526128a881856126cf565b90506128b76080830184612246565b9695505050505050565b600060c08201905081810360008301526128db81896126cf565b905081810360208301526128ef81886126cf565b9050818103604083015261290381876126cf565b90506129126060830186611fe5565b61291f6080830185611fe5565b61292c60a0830184611fcc565b979650505050505050565b600081905092915050565b600061294d82612689565b6129578185612937565b93506129678185602086016126a5565b80840191505092915050565b600061297f8284612942565b915081905092915050565b7f4e487b7100000000000000000000000000000000000000000000000000000000600052602260045260246000fd5b600060028204905060018216806129d157607f821691505b6020821081036129e4576129e361298a565b5b50919050565b60008190508160005260206000209050919050565b60006020601f8301049050919050565b600082821b905092915050565b600060088302612a4c7fffffffffffffffffffffffffffffffffffffffffffffffffffffffffffffffff82612a0f565b612a568683612a0f565b95508019841693508086168417925050509392505050565b6000819050919050565b6000612a93612a8e612a8984612171565b612a6e565b612171565b9050919050565b6000819050919050565b612aad83612a78565b612ac1612ab982612a9a565b848454612a1c565b825550505050565b600090565b612ad6612ac9565b612ae1818484612aa4565b505050565b5b81811015612b0557612afa600082612ace565b600181019050612ae7565b5050565b601f821115612b4a57612b1b816129ea565b612b24846129ff565b81016020851015612b33578190505b612b47612b3f856129ff565b830182612ae6565b50505b505050565b600082821c905092915050565b6000612b6d60001984600802612b4f565b1980831691505092915050565b6000612b868383612b5c565b9150826002028217905092915050565b612b9f82612689565b67ffffffffffffffff811115612bb857612bb7612046565b5b612bc282546129b9565b612bcd828285612b09565b600060209050601f831160018114612c005760008415612bee578287015190505b612bf88582612b7a565b865550612c60565b601f198416612c0e866129ea565b60005b82811015612c3657848901518255600182019150602085019450602081019050612c11565b86831015612c535784890151612c4f601f891682612b5c565b8355505b6001600288020188555050505b505050505050565b7f4e487b7100000000000000000000000000000000000000000000000000000000600052601160045260246000fd5b6000612ca282612171565b91507fffffffffffffffffffffffffffffffffffffffffffffffffffffffffffffffff8203612cd457612cd3612c68565b5b600182019050919050565b6000606082019050612cf46000830186612246565b612d016020830185612246565b8181036040830152612d1381846126cf565b9050949350505050565b7f4e487b7100000000000000000000000000000000000000000000000000000000600052603260045260246000fd5b600081905092915050565b60008190508160005260206000209050919050565b60008154612d79816129b9565b612d838186612d4c565b94506001821660008114612d9e5760018114612db357612de6565b60ff1983168652811515820286019350612de6565b612dbc85612d57565b60005b83811015612dde57815481890152600182019150602081019050612dbf565b838801955050505b50505092915050565b6000612dfb8284612d6c565b915081905092915050565b60006040820190508181036000830152612e2081856126cf565b90508181036020830152612e3481846126cf565b90509392505050565b7f4f72646572206e6f7420666f756e640000000000000000000000000000000000600082015250565b6000612e73600f83612694565b9150612e7e82612e3d565b602082019050919050565b60006020820190508181036000830152612ea281612e66565b9050919050565b60006020820190508181036000830152612ec381846126cf565b905092915050565b60006060820190508181036000830152612ee581866126cf565b90508181036020830152612ef981856126cf565b9050612f086040830184611fcc565b949350505050565b6000612f1b82612171565b9150612f2683612171565b9250828201905080821115612f3e57612f3d612c68565b5b92915050565b7f4f52442d00000000000000000000000000000000000000000000000000000000600082015250565b6000612f7a600483612937565b9150612f8582612f44565b600482019050919050565b6000612f9b82612f6d565b9150612fa78284612942565b915081905092915050565b60006060820190508181036000830152612fcc81866126cf565b90508181036020830152612fe081856126cf565b90508181036040830152612ff481846126cf565b9050949350505050565b7f4f72646572206973206e6f742070656e64696e67000000000000000000000000600082015250565b6000613034601483612694565b915061303f82612ffe565b602082019050919050565b6000602082019050818103600083015261306381613027565b9050919050565b600060408201905061307f6000830185612246565b61308c6020830184612246565b9392505050565b60006060820190506130a86000830186612246565b81810360208301526130ba81856126cf565b90506130c96040830184612246565b949350505050565b7f4e487b7100000000000000000000000000000000000000000000000000000000600052601260045260246000fd5b600061310b82612171565b915061311683612171565b925082613126576131256130d1565b5b828206905092915050565b600061313c82612171565b915061314783612171565b925082613157576131566130d1565b5b828204905092915050565b600061316d82612171565b915061317883612171565b92508282039050818111156131905761318f612c68565b5b9291505056fea26469706673582212201799d80d145b21d9c4191fcc54f4bf22ffebb4cf9523595a44c729cd79609d3d64736f6c63430008140033",
  "linkReferences": {},
  "deployedLinkReferences": {}
}